:020000040800F2
:1000000000280020390A0008890A0008890A000827
:10001000890A0008890A0008890A0008000000000F
:10002000000000000000000000000000890A000835
:10003000890A000800000000890A0008890A0008EF
:10004000890A0008890A0008890A0008890A000844
:10005000890A0008890A0008890A0008890A000834
:10006000890A0008890A0008890A0008890A000824
:10007000890A0008890A0008890A0008890A000814
:10008000890A0008890A0008890A0008890A000804
:10009000890A0008890A0008890A0008890A0008F4
:1000A000890A0008890A0008890A0008890A0008E4
:1000B0008D050008890A0008890A0008890A0008D5
:1000C000890A0008890A0008890A0008890A0008C4
:1000D000890A0008890A0008890A0008890A0008B4
:1000E000890A0008890A000800000000890A00083F
:1000F000890A0008890A0008890A0008890A000894
:10010000890A0008890A0008890A0008890A000883
:10011000890A0008890A0008890A0008890A000873
:10012000890A0008890A0008890A0008890A000863
:1001300010B5054C237833B9044B13B10448AFF321
:1001400000800123237010BD00000020000000008B
:10015000D40A000808B5034B1BB103490348AFF3A9
:10016000008008BD0000000004000020D40A000840
:100170004FF0FF0C1CEAD0521EBF1CEAD15392EA8A
:100180000C0F93EA0C0F6FD01A4480EA010C400266
:1001900018BF5FEA41211ED04FF0006343EA5010C0
:1001A00043EA5111A0FB01310CF00040B1F5000F02
:1001B0003EBF490041EAD3715B0040EA010062F1B1
:1001C0007F02FD2A1DD8B3F1004F40EBC25008BF9B
:1001D00020F00100704790F0000F0CF0004C08BFB9
:1001E00049024CEA502040EA51207F3AC2BFD2F186
:1001F000FF0340EAC250704740F400004FF0000394
:10020000013A5DDC12F1190FDCBF00F000407047CD
:10021000C2F10002410021FA02F1C2F1200200FA0B
:1002200002FC5FEA310040F1000053EA4C0308BFD2
:1002300020EADC70704792F0000F00F0004C02BF23
:10024000400010F4000F013AF9D040EA0C0093F09E
:10025000000F01F0004C02BF490011F4000F013BF8
:10026000F9D041EA0C018FE70CEAD15392EA0C0F66
:1002700018BF93EA0C0F0AD030F0004C18BF31F0D1
:10028000004CD8D180EA010000F00040704790F0A7
:10029000000F17BF90F0004F084691F0000F91F04B
:1002A000004F14D092EA0C0F01D142020FD193EA11
:1002B0000C0F03D14B0218BF084608D180EA010099
:1002C00000F0004040F0FE4040F40000704740F075
:1002D000FE4040F44000704780F0004002E000BF64
:1002E00081F0004142001FBF5FEA410392EA030F21
:1002F0007FEA226C7FEA236C6AD04FEA1262D2EB6B
:100300001363C1BFD218414048404140B8BF5B426F
:10031000192B88BF704710F0004F40F4000020F008
:100320007F4018BF404211F0004F41F4000121F01E
:100330007F4118BF494292EA030F3FD0A2F1010268
:1003400041FA03FC10EB0C00C3F1200301FA03F1A6
:1003500000F0004302D5494260EB4000B0F5000FC9
:1003600013D3B0F1807F06D340084FEA310102F188
:100370000102FE2A51D2B1F1004F40EBC25008BF3A
:1003800020F0010040EA03007047490040EB000004
:10039000013A28BFB0F5000FEDD2B0FA80FCACF105
:1003A000080CB2EB0C0200FA0CF0AABF00EBC25032
:1003B00052421843BCBFD0401843704792F0000F20
:1003C00081F4000106BF80F400000132013BB5E773
:1003D0004FEA41037FEA226C18BF7FEA236C21D0E9
:1003E00092EA030F04D092F0000F08BF084670474E
:1003F00090EA010F1CBF0020704712F07F4F04D11C
:10040000400028BF40F00040704712F100723CBF2E
:1004100000F50000704700F0004343F0FE4040F458
:10042000000070477FEA226216BF08467FEA236316
:100430000146420206BF5FEA412390EA010F40F401
:10044000800070474FF0000304E000BF10F000434D
:1004500048BF40425FEA000C08BF704743F0964334
:1004600001464FF000001CE050EA010208BF70474F
:100470004FF000030AE000BF50EA010208BF7047D6
:1004800011F0004302D5404261EB41015FEA010CEB
:1004900002BF84460146002043F0B64308BFA3F1E3
:1004A0008053A3F50003BCFA8CF2083AA3EBC253C5
:1004B00010DB01FA02FC634400FA02FCC2F12002E4
:1004C000BCF1004F20FA02F243EB020008BF20F01B
:1004D0000100704702F1200201FA02FCC2F1200281
:1004E00050EA4C0021FA02F243EB020008BF20EA76
:1004F000DC70704780B400AF00BFBD4680BC704761
:1005000080B483B000AF0346FB7197F90730002B2E
:100510000BDBFB7903F01F02064997F907305B09F3
:10052000012000FA02F241F8232000BF0C37BD463B
:1005300080BC704700E100E080B483B000AF0346A8
:100540003960FB7197F90730002B0ADB3B68DAB2A0
:100550000C4997F907301201D2B20B4483F80023FB
:100560000AE03B68DAB20849FB7903F00F03043B69
:100570001201D2B20B441A7600BF0C37BD4680BCC4
:10058000704700BF00E100E000ED00E080B400AF84
:100590004FF080431B694FF0804223F00103136149
:1005A0004FF080431B684FF0804223F0010313603B
:1005B000034B02221A7000BFBD4680BC704700BFCB
:1005C0001C00002080B400AF164B9B69154A43F015
:1005D00004039361144B5B68134A43F44033536044
:1005E000114B5B68104A43F4802353600E4BDB6869
:1005F0000D4A43F48053D3600A4B9B69094A43F088
:1006000004039361084B5B68074A43F4405353600B
:10061000054B5B68044A23F44023536000BFBD468A
:1006200080BC7047001002400008014080B400AF59
:10063000084B9B69074A43F400639361064B4FF4F0
:100640007A72DA62044B08229A6200BFBD4680BC0F
:10065000704700BF00100240002C014080B500AF81
:10066000124BDB69114A43F00103D3614FF0804321
:100670004FF4FA52DA624FF080434FF47A729A6282
:100680004FF08043DB684FF0804243F00103D360BA
:100690001C20FFF735FF01211C20FFF74DFF4FF015
:1006A000804301221A6000BF80BD00BF00100240DD
:1006B00080B483B000AF224B9B6803F48053002BBF
:1006C00003D1204B03221A7036E01F4B00225A62DE
:1006D0001D4B1B681C4A43F001031360184BDB6879
:1006E000174A23F48053D36000BF174B5B6AB3F5FE
:1006F000F07FFAD3124BDB68114A43F48053D36086
:1007000000BF114B5B6AB3F5027FFAD30C4B9B68B9
:100710000023FB7100BF0C4B5B6AB3F5707FFAD30B
:10072000FB79002B02D0074B03221A70064B1B6883
:10073000054A23F0010313600C37BD4680BC7047A7
:10074000000801401C000020002C014080B483B050
:1007500000AF0346FB71194B00225A62174B1B680E
:10076000164A43F001031360154BDB68144A23F467
:100770008053D36000BF114B5B6A012BFBD9FB791F
:10078000002B05D00E4BDB680D4A43F48053D36039
:1007900000BF0A4B5B6A3B2BFBD9094BDB68084A5D
:1007A00043F48053D360054B1B68044A23F00103D4
:1007B000136000BF0C37BD4680BC7047002C014061
:1007C0000008014080B584B000AF0346FB710023F0
:1007D000FB730FE0FB7B012202FA03F35AB297F995
:1007E000073013405BB2DBB21846FFF7AFFFFB7B6D
:1007F0000133FB73FB7B072BECD900BF00BF103725
:10080000BD4680BD80B483B000AF1B4B00225A624E
:10081000194B1B68184A43F001031360174BDB6840
:10082000164A23F48053D36000BF134B5B6A012B3D
:10083000FBD9124BDB68114A43F48053D36000BFED
:100840000D4B5B6A0E2BFBD90C4B9B681B0BDBB271
:1008500003F00103FB7100BF074B5B6A3B2BFBD925
:10086000054B1B68044A23F001031360FB7918460B
:100870000C37BD4680BC7047002C01400008014089
:1008800080B582B000AF0023FB710023BB710FE085
:10089000FFF7B8FF03461A46BB7902FA03F35AB2D0
:1008A00097F9073013435BB2FB71BB790133BB711E
:1008B000BB79072BECD9FB7918460837BD4680BDBC
:1008C00080B400AF4FF0804300225A624FF0804363
:1008D0001B684FF0804243F00103136000BFBD4628
:1008E00080BC704780B500AFFFF7E2FE074B1B7876
:1008F000032B08D0CC20FFF765FF4420FFF762FFF1
:10090000FFF7DEFF00E000BF80BD00BF1C0000203D
:1009100080B582B000AFFFF7CBFE224B1B78032BD4
:100920003BD0CC20FFF74EFFBE20FFF74BFF00234C
:100930007B600BE0FFF7A4FF034619461A4A7B6869
:1009400013440A461A707B6801337B607B68082B6E
:10095000F0DD154B5B781A46144B1A80134B1B883D
:100960001B029AB2114B1A800F4B1B781A460F4B81
:100970001B8813439AB20D4B1A800C4B1B881846E8
:10098000FFF760FD03464FF076511846FFF7F0FB86
:1009900003461A46064B1A6000E000BF0837BD4602
:1009A00080BD00BF1C000020200000202A00002085
:1009B0002C00002080B500AFFFF704FEFFF736FEE5
:1009C000FFF74CFE00BF80BD80B500AF144B1B7815
:1009D000032B1ED801A252F823F000BFED09000836
:1009E0001B0A0008F9090008050A00080C4B01223F
:1009F0001A70FFF777FF11E0FFF78AFF084B00221C
:100A00001A700BE0074BDB68064A43F40063D360BF
:100A100004E0034B00221A7000E000BF00BF80BD5D
:100A20001C0000200008014080B500AFFFF7C2FFA6
:100A3000FFF7CAFFFCE700000D488546FFF75AFDA7
:100A40000C480D490D4A002302E0D458C450043329
:100A5000C4188C42F9D30A4A0A4C002301E01360FF
:100A60000432A242FBD300F011F8FFF7DDFFFEE7EE
:100A7000002800200000002000000020F40A0008E8
:100A80000000002030000020FEE7000070B50026C6
:100A90000C4D0D4C641BA410A64209D100F01AF8AD
:100AA00000260A4D0A4C641BA410A64205D170BD55
:100AB00055F8043B98470136EEE755F8043B984754
:100AC0000136F2E7EC0A0008EC0A0008EC0A00081C
:100AD000F00A0008F8B500BFF8BC08BC9E46704795
:0C0AE000F8B500BFF8BC08BC9E4670478B
:040AEC0055010008A8
:040AF00031010008C8
:0400000508000A39AC
:00000001FF
