:020000040800F2
:10000000002800208D1D0008DD1D0008DD1D0008F2
:10001000DD1D0008DD1D0008DD1D000800000000DA
:10002000000000000000000000000000DD1D0008CE
:10003000DD1D000800000000DD1D0008DD1D0008BA
:10004000DD1D0008DD1D0008DD1D0008DD1D0008A8
:10005000DD1D0008DD1D0008DD1D0008DD1D000898
:10006000DD1D0008DD1D0008DD1D0008DD1D000888
:10007000C50E0008F10E000879140008DD1D000807
:10008000DD1D0008DD1D0008DD1D0008DD1D000868
:10009000DD1D0008DD1D0008DD1D0008DD1D000858
:1000A000DD1D0008DD1D0008DD1D0008DD1D000848
:1000B000C1160008DD1D0008DD1D0008DD1D00085B
:1000C000DD1D0008DD1D0008DD1D0008DD1D000828
:1000D000DD1D0008DD1D0008DD1D0008DD1D000818
:1000E000DD1D0008DD1D000800000000DD1D00080A
:1000F000DD1D0008DD1D0008DD1D0008DD1D0008F8
:10010000DD1D0008DD1D0008DD1D0008DD1D0008E7
:10011000DD1D0008DD1D0008DD1D0008DD1D0008D7
:10012000DD1D0008DD1D0008DD1D0008DD1D0008C7
:1001300010B5054C237833B9044B13B10448AFF321
:1001400000800123237010BDCC01002000000000BE
:100150002047000808B5034B1BB103490348AFF320
:10016000008008BD00000000D001002020470008EA
:10017000034613F8012B002AFBD1181A01387047E7
:100180004FF0FF0C1CEAD0521EBF1CEAD15392EA7A
:100190000C0F93EA0C0F6FD01A4480EA010C400256
:1001A00018BF5FEA41211ED04FF0006343EA5010B0
:1001B00043EA5111A0FB01310CF00040B1F5000FF2
:1001C0003EBF490041EAD3715B0040EA010062F1A1
:1001D0007F02FD2A1DD8B3F1004F40EBC25008BF8B
:1001E00020F00100704790F0000F0CF0004C08BFA9
:1001F00049024CEA502040EA51207F3AC2BFD2F176
:10020000FF0340EAC250704740F400004FF0000383
:10021000013A5DDC12F1190FDCBF00F000407047BD
:10022000C2F10002410021FA02F1C2F1200200FAFB
:1002300002FC5FEA310040F1000053EA4C0308BFC2
:1002400020EADC70704792F0000F00F0004C02BF13
:10025000400010F4000F013AF9D040EA0C0093F08E
:10026000000F01F0004C02BF490011F4000F013BE8
:10027000F9D041EA0C018FE70CEAD15392EA0C0F56
:1002800018BF93EA0C0F0AD030F0004C18BF31F0C1
:10029000004CD8D180EA010000F00040704790F097
:1002A000000F17BF90F0004F084691F0000F91F03B
:1002B000004F14D092EA0C0F01D142020FD193EA01
:1002C0000C0F03D14B0218BF084608D180EA010089
:1002D00000F0004040F0FE4040F40000704740F065
:1002E000FE4040F44000704781F0004102E000BF52
:1002F00083F0004330B54FEA41044FEA430594EAE6
:10030000050F08BF90EA020F1FBF54EA000C55EA20
:10031000020C7FEA645C7FEA655C00F0E2804FEAF1
:100320005454D4EB5555B8BF6D420CDD2C4480EAD3
:10033000020281EA030382EA000083EA010180EA03
:10034000020281EA0303362D88BF30BD11F0004F51
:100350004FEA01314FF4801C4CEA113102D0404287
:1003600061EB410113F0004F4FEA03334CEA1333C2
:1003700002D0524263EB430394EA050F00F0A780DA
:10038000A4F10104D5F1200E0DDB02FA0EFC22FAD5
:1003900005F2801841F1000103FA0EF2801843FAC9
:1003A00005F359410EE0A5F120050EF1200E012ABA
:1003B00003FA0EFC28BF4CF0020C43FA05F3C018F8
:1003C00051EBE37101F0004507D54FF0000EDCF171
:1003D000000C7EEB00006EEB0101B1F5801F1BD31A
:1003E000B1F5001F0CD349085FEA30004FEA3C0C1E
:1003F00004F101044FEA445212F5800F80F09A8014
:10040000BCF1004F08BF5FEA500C50F1000041EB17
:10041000045141EA050130BD5FEA4C0C404141EB1B
:100420000101013C28BFB1F5801FE9D291F0000F16
:1004300004BF01460020B1FA81F308BF2033A3F1C5
:100440000B03B3F120020CDA0C3208DD02F1140CBC
:10045000C2F10C0201FA0CF021FA02F10CE002F1F7
:100460001402D8BFC2F1200C01FA02F120FA0CFCF0
:10047000DCBF41EA0C019040E41AA2BF01EB045139
:10048000294330BD6FEA04041F3C1CDA0C340EDC37
:1004900004F11404C4F1200220FA04F001FA02F37A
:1004A00040EA030021FA04F345EA030130BDC4F138
:1004B0000C04C4F1200220FA02F001FA04F340EA2D
:1004C0000300294630BD21FA04F0294630BD94F0DE
:1004D000000F83F4801306BF81F480110134013DC5
:1004E0004EE77FEA645C18BF7FEA655C29D094EA36
:1004F000050F08BF90EA020F05D054EA000C04BFB4
:100500001946104630BD91EA030F1EBF002100209E
:1005100030BD5FEA545C05D14000494128BF41F03D
:10052000004130BD14F580043CBF01F5801130BDA1
:1005300001F0004545F0FE4141F470014FF000002C
:1005400030BD7FEA645C1ABF194610467FEA655CDD
:100550001CBF0B46024650EA013406BF52EA03357F
:1005600091EA030F41F4002130BD00BF90F0000F6D
:1005700004BF0021704730B54FF4806404F13204A9
:100580004FF000054FF0000150E700BF90F0000F62
:1005900004BF0021704730B54FF4806404F1320489
:1005A00010F0004548BF40424FF000013EE700BF59
:1005B00042004FEAE2014FEA31014FEA02701FBFE9
:1005C00012F07F4393F07F4F81F06051704732F01B
:1005D0007F4208BF704793F07F4F04BF41F4002172
:1005E000704730B54FF4607401F0004521F00041D0
:1005F0001CE700BF50EA010208BF704730B54FF05A
:1006000000050AE050EA010208BF704730B511F05A
:10061000004502D5404261EB41014FF4806404F192
:1006200032045FEA915C3FF4D8AE4FF003025FEA18
:10063000DC0C18BF03325FEADC0C18BF033202EB9C
:10064000DC02C2F1200300FA03FC20FA02F001FAF6
:1006500003FE40EA0E0021FA02F11444BDE600BF99
:1006600070B54FF0FF0C4CF4E06C1CEA11541DBF48
:100670001CEA135594EA0C0F95EA0C0F00F0DEF813
:100680002C4481EA030621EA4C5123EA4C5350EAF8
:10069000013518BF52EA033541F4801143F4801349
:1006A00038D0A0FB02CE4FF00005E1FB02E506F0DA
:1006B0000042E0FB03E54FF00006E1FB03569CF02F
:1006C000000F18BF4EF0010EA4F1FF04B6F5007F35
:1006D00064F5407404D25FEA4E0E6D4146EB0606A7
:1006E00042EAC62141EA55514FEAC52040EA5E5030
:1006F0004FEACE2EB4F1FD0C88BFBCF5E06F1ED8DA
:10070000BEF1004F08BF5FEA500E50F1000041EB10
:10071000045170BD06F0004646EA010140EA0200BD
:1007200081EA0301B4EB5C04C2BFD4EB0C0541EADF
:10073000045170BD41F480114FF0000E013C00F3F4
:10074000AB8014F1360FDEBF002001F0004170BD18
:10075000C4F10004203C35DA0C341BDC04F1140431
:10076000C4F1200500FA05F320FA04F001FA05F2BD
:1007700040EA020001F0004221F0004110EBD3708A
:1007800021FA04F642EB06015EEA430E08BF20EAB6
:10079000D37070BDC4F10C04C4F1200500FA04F359
:1007A00020FA05F001FA04F240EA020001F00041EB
:1007B00010EBD37041F100015EEA430E08BF20EA5E
:1007C000D37070BDC4F1200500FA05F24EEA020EA6
:1007D00020FA04F301FA05F243EA020321FA04F0D5
:1007E00001F0004121FA04F220EA020000EBD3708C
:1007F0005EEA430E08BF20EAD37070BD94F0000F8C
:100800000FD101F00046400041EB010111F4801FBF
:1008100008BF013CF7D041EA060195F0000F18BF70
:10082000704703F00046520043EB030313F4801FAC
:1008300008BF013DF7D043EA0603704794EA0C0F66
:100840000CEA135518BF95EA0C0F0CD050EA41067C
:1008500018BF52EA4306D1D181EA030101F00041F9
:100860004FF0000070BD50EA410606BF1046194621
:1008700052EA430619D094EA0C0F02D150EA01362D
:1008800013D195EA0C0F05D152EA03361CBF10466E
:1008900019460AD181EA030101F0004141F0FE410D
:1008A00041F470014FF0000070BD41F0FE4141F491
:1008B000780170BD70B54FF0FF0C4CF4E06C1CEA91
:1008C00011541DBF1CEA135594EA0C0F95EA0C0F46
:1008D00000F0A7F8A4EB050481EA030E52EA033501
:1008E0004FEA013100F088804FEA03334FF0805522
:1008F00045EA131343EA12634FEA022245EA11154F
:1009000045EA10654FEA00260EF000419D4208BFFF
:10091000964244F1FD0404F5407402D25B084FEAAC
:100920003202B61A65EB03055B084FEA32024FF458
:1009300080104FF4002CB6EB020E75EB030E22BFB5
:10094000B61A754640EA0C005B084FEA3202B6EB75
:10095000020E75EB030E22BFB61A754640EA5C0024
:100960005B084FEA3202B6EB020E75EB030E22BFB4
:10097000B61A754640EA9C005B084FEA3202B6EBB5
:10098000020E75EB030E22BFB61A754640EADC0074
:1009900055EA060E18D04FEA051545EA16754FEAD6
:1009A00006164FEAC30343EA52734FEAC2025FEAF4
:1009B0001C1CC0D111F4801F0BD141EA00014FF083
:1009C00000004FF0004CB6E711F4801F04BF014354
:1009D0000020B4F1FD0C88BFBCF5E06F3FF6AFAE70
:1009E000B5EB030C04BFB6EB020C5FEA500C50F100
:1009F000000041EB045170BD0EF0004E4EEA113183
:100A000014EB5C04C2BFD4EB0C0541EA045170BD89
:100A100041F480114FF0000E013C90E645EA060ECD
:100A20008DE60CEA135594EA0C0F08BF95EA0C0FFB
:100A30003FF43BAF94EA0C0F0AD150EA01347FF443
:100A400034AF95EA0C0F7FF425AF104619462CE71A
:100A500095EA0C0F06D152EA03353FF4FDAE10467D
:100A6000194622E750EA410618BF52EA43067FF4CE
:100A7000C5AE50EA41047FF40DAF52EA43057FF45E
:100A8000EBAE12E74FF0FF3C06E000BF4FF0010C69
:100A900002E000BF4FF0010C4DF804CD4FEA410CCD
:100AA0007FEA6C5C4FEA430C18BF7FEA6C5C1BD09A
:100AB00001B050EA410C0CBF52EA430C91EA030F1B
:100AC00002BF90EA020F0020704710F1000F91EA78
:100AD000030F58BF994208BF90422CBFD8176FEA46
:100AE000E37040F0010070474FEA410C7FEA6C5C14
:100AF00002D150EA013C07D14FEA430C7FEA6C5C1B
:100B0000D6D152EA033CD3D05DF8040B704700BF46
:100B10008446104662468C461946634600E000BF94
:100B200001B5FFF7B7FF002848BF10F1000F01BD66
:100B30004DF808EDFFF7F4FF0CBF012000205DF831
:100B400008FB00BF4DF808EDFFF7EAFF34BF0120B6
:100B500000205DF808FB00BF4DF808EDFFF7E0FF4F
:100B600094BF012000205DF808FB00BF4DF808EDA0
:100B7000FFF7CEFF94BF012000205DF808FB00BF07
:100B80004DF808EDFFF7C4FF34BF012000205DF8E9
:100B900008FB00BF4FEA410C7FEA6C5C02D150EACF
:100BA000013C0AD14FEA430C7FEA6C5C02D152EA65
:100BB000033C02D14FF0000070474FF00100704736
:100BC0004FEA410212F5001215D211D56FF4787375
:100BD000B3EB625212D94FEAC12343F0004343EA18
:100BE000505311F0004F23FA02F018BF40427047F3
:100BF0004FF00000704750EA013005D111F000407D
:100C000008BF6FF0004070474FF00000704700BF12
:100C100080F0004002E000BF81F0004142001FBFB1
:100C20005FEA410392EA030F7FEA226C7FEA236CBA
:100C30006AD04FEA1262D2EB1363C1BFD2184140AF
:100C400048404140B8BF5B42192B88BF704710F045
:100C5000004F40F4000020F07F4018BF404211F0E8
:100C6000004F41F4000121F07F4118BF494292EA50
:100C7000030F3FD0A2F1010241FA03FC10EB0C007C
:100C8000C3F1200301FA03F100F0004302D5494209
:100C900060EB4000B0F5000F13D3B0F1807F06D3B6
:100CA00040084FEA310102F10102FE2A51D2B1F1AE
:100CB000004F40EBC25008BF20F0010040EA0300A3
:100CC0007047490040EB0000013A28BFB0F5000F23
:100CD000EDD2B0FA80FCACF1080CB2EB0C0200FAD9
:100CE0000CF0AABF00EBC25052421843BCBFD04028
:100CF0001843704792F0000F81F4000106BF80F4A2
:100D000000000132013BB5E74FEA41037FEA226C64
:100D100018BF7FEA236C21D092EA030F04D092F02F
:100D2000000F08BF0846704790EA010F1CBF002063
:100D3000704712F07F4F04D1400028BF40F00040C0
:100D4000704712F100723CBF00F50000704700F0E0
:100D5000004343F0FE4040F4000070477FEA226207
:100D600016BF08467FEA23630146420206BF5FEAD8
:100D7000412390EA010F40F4800070474FF00003D8
:100D800004E000BF10F0004348BF40425FEA000C9F
:100D900008BF704743F0964301464FF000001CE047
:100DA00050EA010208BF70474FF000030AE000BF9D
:100DB00050EA010208BF704711F0004302D54042DB
:100DC00061EB41015FEA010C02BF8446014600204D
:100DD00043F0B64308BFA3F18053A3F50003BCFA68
:100DE0008CF2083AA3EBC25310DB01FA02FC634415
:100DF00000FA02FCC2F12002BCF1004F20FA02F21C
:100E000043EB020008BF20F00100704702F120020E
:100E100001FA02FCC2F1200250EA4C0021FA02F26F
:100E200043EB020008BF20EADC70704780B400AFDB
:100E300000BFBD4680BC704780B483B000AF03469E
:100E4000FB7197F90730002B0BDBFB7903F01F02D6
:100E5000064997F907305B09012000FA02F241F8D0
:100E6000232000BF0C37BD4680BC704700E100E086
:100E700080B483B000AF03463960FB7197F9073047
:100E8000002B0ADB3B68DAB20C4997F907301201F4
:100E9000D2B20B4483F800230AE03B68DAB2084977
:100EA000FB7903F00F03043B1201D2B20B441A7614
:100EB00000BF0C37BD4680BC704700BF00E100E0BA
:100EC00000ED00E080B500AF074B5B68064A43F0D9
:100ED0002003536000F080F8044B1B68034A23F0A2
:100EE0000103136000BF80BD000002401C000240EF
:100EF00080B500AF074B5B68064A43F4007353604C
:100F000000F06AF8044B1B68034A23F001031360E6
:100F100000BF80BD000002403000024080B500AF3D
:100F2000164B9B69154A43F004039361144B1B68ED
:100F3000134A43F04C5343F440131360104B5B6867
:100F40000F4A43F0030353600D4B1B680C4A23F018
:100F50004C4323F440031360094B5B68084A23F0B9
:100F60000C035360064B1B68054A43F0084343F4E7
:100F70000003136000F030F800BF80BD0010024095
:100F80000008014080B500AFFFF7C8FF104B9B6918
:100F90000F4A43F4805393610E4B1B680D4A23F0B4
:100FA000400313600B4B1B680A4A43F44173136000
:100FB000084B5B68074A43F00303536000F01AF8DC
:100FC000044B1B68034A43F04003136000BF80BD1D
:100FD000001002400030014080B400AF044BDB68D9
:100FE000034A43F48073D36000BFBD4680BC7047A2
:100FF0000008014080B500AF1C4B5B691B4A43F001
:10100000010353611A4B1B68194A43F092031360A2
:10101000184B1B68174A43F082031360154B164A9E
:10102000DA60144B154A9A60114B00225A60104B3B
:10103000134ADA600E4B114A9A600D4B00225A6037
:10104000104B5B680F4A43F0020353600C20FFF71C
:10105000F3FE01210C20FFF70BFF0D20FFF7ECFE44
:1010600001210D20FFF704FF00BF80BD00100240EA
:10107000300002401C000240E80200200C30014019
:10108000E80100200030014080B400AF0D4B9B69A7
:101090000C4A43F0080393610B4B1B680A4A23F088
:1010A00040631360084B1B68074A23F040431360FA
:1010B000054B1B68044A43F07F43136000BFBD46E5
:1010C00080BC704700100240000C014080B500AFAA
:1010D000FFF7DAFF1C4BDB691B4A43F40013D361B3
:1010E0001A4B1B68194A23F001031360174BDB6886
:1010F000164A23F00103D360144B1B68134A23F0F4
:1011000040031360114B1B68104A23F080031360E7
:101110000E4B08225A600D4BDB690C4A43F0280342
:10112000D3610A4B1B6A094A43F019031362074B48
:10113000064A1B681360054B1B68044A43F0010311
:10114000136000BF80BD00BF00100240005400408B
:1011500080B483B000AF03460A46FB711346BB71EF
:101160001C4B1B681B4A43F480631360194B1B68BC
:10117000184A43F48073136000BF164B5B6903F099
:101180000103012BF9D1134B5B69FB79114A5B0019
:10119000136100BF0F4B5B6903F00203022BF9D10F
:1011A0000C4B5B690B4B9B690A4ABB79136100BF0F
:1011B000084B5B6903F08003802BF9D1054B1B685A
:1011C000044A43F40073136000BF0C37BD4680BC73
:1011D000704700BF0054004080B485B000AF0346A4
:1011E0003960FB711346BB711F4B1B681E4A43F4E9
:1011F0008073136000BF1C4B5B6903F00103012B7C
:10120000F9D1194B5B69FB79174A5B00136100BF89
:10121000154B5B6903F00203022BF9D1124B5B699A
:10122000114B9B690023FB730FE0FB7B3A6813446F
:101230001A780D4B1A6100BF0B4B5B6903F08003FA
:10124000802BF9D1FB7B0133FB73FA7BBB799A428C
:10125000EBD3054B1B68044A43F40073136000BFD3
:101260001437BD4680BC70470054004080B485B040
:1012700000AF03463960FB711346BB7100BF364BAC
:101280009B6903F00203022BF9D0334B1B68324AEF
:1012900043F480631360304B1B682F4A43F4807320
:1012A000136000BF2C4B5B6903F00103012BF9D1E4
:1012B000294B5B69FB795B0043F00102264B1A6105
:1012C0000023BB6000BF244B5B6903F00203022BC9
:1012D000F9D1214B5B69204B9B690023FB6030E017
:1012E000BB79013BFA689A420EDA00BF1A4B5B6980
:1012F00003F04003402BF9D1174B1969FB683A689A
:101300001344CAB21A7019E0134B1B68124A23F433
:1013100080631360104B1B680F4A43F40073136023
:1013200000BF0D4B5B6903F04003402BF9D10A4B22
:101330001969FB683A681344CAB21A70FB68013332
:10134000FB60BB79FA689A42CADB00BF00BF143762
:10135000BD4680BC704700BF0054004080B584B0DB
:1013600000AF1F4B1B78002B0CD140F20313BB8046
:101370003B1D022219464020FFF72EFF184B012289
:101380001A7029E00023FB6002E0FB680133FB6078
:10139000FB68144A9342F8DD01214020FFF7D8FE94
:1013A00007F10803022219464020FFF75FFF3B7A4E
:1013B0001AB27B7A1B021BB213431BB27B817B895F
:1013C0005B099BB2323B1846FFF7DCFC0346064A3A
:1013D0005360034B00221A701037BD4680BD00BF1A
:1013E000E70300209F860100E803002080B483B05B
:1013F00000AF0346FB7197F90730002B0BDBFB793D
:1014000003F01F02064997F907305B09012000FA33
:1014100002F241F8232000BF0C37BD4680BC704764
:1014200000E100E080B483B000AF03463960FB7197
:1014300097F90730002B0ADB3B68DAB20C4997F9C1
:1014400007301201D2B20B4483F800230AE03B6854
:10145000DAB20849FB7903F00F03043B1201D2B260
:101460000B441A7600BF0C37BD4680BC704700BFE6
:1014700000E100E000ED00E080B400AF074B5B68E6
:10148000064A43F400535360054B1B68044A23F09B
:101490000103136000BFBD4680BC704700000240DE
:1014A0004400024080B400AF074B9B69064A43F0FA
:1014B00004039361054B5B68044A43F0B003536037
:1014C00000BFBD4680BC70470010024000080140CC
:1014D00080B500AFFFF7E6FF00F02AF8104B9B69DC
:1014E0000F4A43F4804393610E4BDB680D4A43F08F
:1014F0000803D3600C4B1B680A4A0C49A1FB031379
:101500001B0C9360074B5B69064A43F080035361F1
:10151000044BDB68034A43F40053D36000BF80BD33
:10152000001002400038014000000020C5B3A29125
:1015300080B500AF114B5B69104A43F00103536162
:101540000F4B1B680E4A43F0900313600C4B0D4A7F
:10155000DA600B4B0C4A9A60094B1B68084A43F04F
:1015600002031360064B00225A600E20FFF73EFF75
:1015700003210E20FFF756FF00BF80BD0010024080
:1015800044000240F40300200438014080B485B0D8
:1015900000AF78600B46FB70104A7B68D3600F4A3F
:1015A000FB7853600D4B1B680C4A43F0010313603A
:1015B00000BF0A4B1B6803F00103002BF9D1002385
:1015C000FB6002E0FB680133FB60FB68632BF9DD25
:1015D00000BF00BF1437BD4680BC704744000240C6
:1015E000B0B400AF0F4A104B14461D460FCD0FC4C8
:1015F0002B681A46228002341B0C23700B4B4FF0D1
:1016000000021A60094B4FF000025A60074B4FF07E
:1016100000029A60064B00221A7000BFBD46B0BCA3
:10162000704700BFF403002038470008E80300209B
:101630000804002080B483B000AF0346FB7197F923
:101640000730002B0BDBFB7903F01F02064997F9EB
:1016500007305B09012000FA02F241F8232000BFA5
:101660000C37BD4680BC704700E100E080B483B019
:1016700000AF03463960FB7197F90730002B0ADB96
:101680003B68DAB20C4997F907301201D2B20B4429
:1016900083F800230AE03B68DAB20849FB7903F0DB
:1016A0000F03043B1201D2B20B441A7600BF0C3771
:1016B000BD4680BC704700BF00E100E000ED00E0E7
:1016C00080B400AF4FF080431B694FF0804223F09D
:1016D000010313614FF080431B684FF0804223F0F9
:1016E00001031360044B01221A70044B01221A708B
:1016F00000BFBD4680BC70470804002009040020DC
:1017000080B400AF194B9B69184A43F004039361FE
:10171000174B5B68164A43F440335360144B5B68C5
:10172000134A23F440235360114B5B68104A43F47F
:10173000802353600E4BDB680D4A43F48053D36023
:101740000A4B9B69094A43F010039361084B5B689D
:10175000074A43F440535360054B5B68044A23F443
:101760004043536000BFBD4680BC7047001002403C
:101770000008014080B400AF0B4BDB690A4A43F01C
:101780000203D361094B4FF47A72DA62074B0722E6
:101790009A62064B1B68054A43F00103136000BFC1
:1017A000BD4680BC704700BF0010024000040040EE
:1017B00080B500AF144BDB69134A43F00103D361DA
:1017C0004FF080434FF4FA52DA624FF0804340F218
:1017D0001F329A624FF08043DB684FF0804243F043
:1017E0000103D3601C20FFF725FF01211C20FFF718
:1017F0003DFF4FF080431B684FF0804243F00103F0
:10180000136000BF80BD00BF0010024080B400AF75
:101810001E4B9B6803F48053002B03D11C4B032207
:101820001A7030E01B4B00225A62184BDB68174AD3
:1018300023F48053D36000BF164B5B6AB3F5F07F8F
:10184000FAD3124BDB68114A43F48053D36000BFD4
:10185000104B5B6AB3F5027FFAD30C4B9B6803F421
:101860008053002B03D00A4B03221A700BE0074B66
:10187000DB68064A23F40063D36000BF054B5B6A54
:10188000B3F5707FFAD3BD4680BC704700080140B5
:10189000090400200004004080B483B000AF034678
:1018A000FB71134B00225A62124BDB68114A23F47E
:1018B0008053D36000BF0E4B5B6A012BFBD9FB79D1
:1018C000002B05D00B4BDB680A4A43F48053D360EE
:1018D00000BF074B5B6A3B2BFBD9064BDB68054A15
:1018E00043F48053D36000BF0C37BD4680BC7047C3
:1018F000000400400008014080B584B000AF0346FA
:10190000FB710023FB730FE0FB7B012202FA03F360
:101910005AB297F9073013405BB2DBB21846FFF7B3
:10192000BBFFFB7B0133FB73FB7B072BECD900BFB9
:1019300000BF1037BD4680BD80B483B000AF154BEB
:1019400000225A62144BDB68134A23F48053D3609D
:1019500000BF104B5B6A012BFBD90F4BDB680E4AB3
:1019600043F48053D36000BF0A4B5B6A132BFBD94F
:10197000094B9B681B0BDBB203F00103FB7100BF3B
:10198000044B5B6A3B2BFBD9FB7918460C37BD46F1
:1019900080BC7047000400400008014080B582B060
:1019A00000AF0023FB710023BB710FE0FFF7C4FF02
:1019B00003461A46BB7902FA03F35AB297F9073085
:1019C00013435BB2FB71BB790133BB71BB79072B4E
:1019D000ECD9FB7918460837BD4680BD80B400AF0E
:1019E0004FF0804300225A624FF080431B684FF053
:1019F000804243F00103136000BFBD4680BC7047C6
:101A000080B500AFFFF702FF074B1B78032B08D010
:101A1000CC20FFF771FF4420FFF76EFFFFF7DEFFDA
:101A200000E000BF80BD00BF0904002080B582B087
:101A300000AFFFF7EBFE224B1B78032B3BD0CC20F3
:101A4000FFF75AFFBE20FFF757FF00237B600BE034
:101A5000FFF7A4FF034619461A4A7B6813440A4657
:101A60001A707B6801337B607B68082BF0DD154BB7
:101A70005B781A46144B1A80134B1B881B029AB2D0
:101A8000114B1A800F4B1B781A460F4B1B881343C0
:101A90009AB20D4B1A800C4B1B881846FFF76EF953
:101AA00003464FF076511846FEF76AFB03461A4686
:101AB000064B1A6000E000BF0837BD4680BD00BF7E
:101AC000090400200C04002016040020E803002074
:101AD00080B500AFFFF714FEFFF74CFEFFF768FE7E
:101AE00000BF80BD80B500AF164B1B78032B21D8FB
:101AF00001A252F823F000BF091B0008151B0008C3
:101B00003D1B0008211B00080E4B02221A70FFF734
:101B100077FF14E00B4B00221A70FFF787FF0EE0EF
:101B2000094BDB68084A43F40063D360054B00228D
:101B30001A7004E0034B00221A7000E000BF00BFDF
:101B400080BD00BF090400200008014080B582B0BC
:101B500000AFFFF717FAFFF7B9FAFFF7B9FFFFF782
:101B6000B7FCFFF73DFD00237B6002E07B6801339B
:101B70007B607B68154A9342F8DD154B1B78002B80
:101B800002D0012B05D0F8E7FFF7ACFFFFF7E6FB2B
:101B90001BE012210F48FFF7F9FC0F4B1B6818469A
:101BA000FEF706FD02460B460C4800F037FE0A4BD6
:101BB0005B681846FEF7FCFC02460B46084800F03E
:101BC0002DFE034B00221A7000BFD6E79F8601004E
:101BD00008040020F4030020E80300204C4700081C
:101BE0006847000880B584B000AF78607B68DBB2DE
:101BF000FB7307F10F0301211846FFF7C7FC7B6851
:101C000018461037BD4680BD80B400AF012318468A
:101C1000BD4680BC704780B582B000AF7860396047
:101C200000F0A4FE034616221A604FF0FF33184658
:101C30000837BD4680BD80B582B000AF78604FF0F8
:101C4000FF317868FFF7E7FF00BFFDE780B586B09A
:101C500000AFF860B9607A6000237B610AE0AFF3FF
:101C600000800146BB685A1CBA60CAB21A707B6910
:101C700001337B617A697B689A42F0DB7B681846A6
:101C80001837BD4680BD80B586B000AFF860B9603A
:101C90007A6000237B6109E0BB685A1CBA601B783C
:101CA0001846FFF79FFF7B6901337B617A697B6888
:101CB0009A42F1DB7B6818461837BD4680BD80B478
:101CC00083B000AF78604FF0FF3318460C37BD4645
:101CD00080BC704780B483B000AF786039603B68E7
:101CE0004FF400525A60002318460C37BD4680BCA2
:101CF000704780B483B000AF7860012318460C377A
:101D0000BD4680BC704780B485B000AFF860B96054
:101D10007A60002318461437BD4680BC7047000027
:101D200080B586B000AF7860144A154BD31A7B613A
:101D30007B693B61134B1B68002B02D1114B124A8C
:101D40001A60104B1A687B6813443A699A4207D2AA
:101D500000F00CFE03460C221A604FF0FF3309E03E
:101D6000084B1B68FB60074B1A687B681344054AE5
:101D70001360FB6818461837BD4680BD0028002058
:101D80000004000018040020680500200D48854666
:101D9000FFF74CF80C480D490D4A002302E0D458D7
:101DA000C4500433C4188C42F9D30A4A0A4C0023A5
:101DB00001E013600432A242FBD300F0DDFDFFF727
:101DC000C5FEFEE70028002000000020CC01002016
:101DD000004B0008CC01002068050020FEE7002B26
:101DE0002DE9F0471D46BBBF03F100431D4600230C
:101DF0002D2388B01446B8BF1446129A109E137053
:101E0000149BDDF84CA023F02008B8F1460F05D054
:101E1000B8F1450F00D10136022300E0032307AAE1
:101E2000049206AACDE902A2CDE9003622462B464D
:101E300000F062FEB8F1470F074619D1119BDB078E
:101E40000ED500EB06090022002320462946FEF7A6
:101E50006FFE08B1CDF81C903022079B4B451ED376
:101E60003846079B159ADB1B136008B0BDE8F08766
:101E7000B8F1460F00EB0609E5D10378302B0AD103
:101E80000022002320462946FEF752FE18B9C6F16B
:101E90000106CAF80060DAF800309944D3E7591C0B
:101EA00007911A70D9E7F7B50029B6BF2D232B2368
:101EB000494209290270437029DD0DF107031D46CF
:101EC0000A27B1FBF7F61A4607FB1614303402F85E
:101ED000014C0C46632C314603F1FF33F1DC303109
:101EE000941E03F8011C2346411CAB420AD30DF19A
:101EF00009039B1AAC4288BF002302330344181A1B
:101F000003B0F0BD13F8016B01F8016FEDE730236A
:101F100030318370C170031DF1E700002DE9F04FEF
:101F200091B00C46DDF8688016461F46054600F065
:101F3000D3FC036818460893FEF71AF900230E93A2
:101F4000D8F800300990073323F0070303F10802A3
:101F500094F818A0D4F800B0C8F80020D3E900899C
:101F600029F000430B93CDF828804FF0FF32DDE9D4
:101F70000A01C4E912899C4BFEF70CFE70BBDDE937
:101F80000A014FF0FF32984BFEF7E6FD30BB00220E
:101F9000002340464946FEF7D5FD10B12D2384F8B5
:101FA0004330924A924BBAF1470F94BF90469846FD
:101FB00003234FF0000923612BF004032360334611
:101FC0002146284600970FAA00F0D4F9013040F0CE
:101FD00090804FF0FF3011B0BDE8F08F42464B4685
:101FE00040464946FEF7D6FD48B14B46002BB8BFE8
:101FF0002D23804AB8BF84F843307F4BD3E7636812
:102000000AF0DF015A1C3FD10623636000224BF423
:102010008063236006920EAACDE904A20DAA039262
:102020000DF13302CDE90132636842460093284640
:102030004B460A91FFF7D3FE0A99804647290D992E
:1020400028D1C81C02DB6368994240DDAAF1020A6C
:102050005FFA8AFA5246013904F150000D91FFF7F8
:1020600022FF0E9A81461318012A236102DC22689E
:10207000D20701D5013323619DF83330002B9ED068
:102080002D2384F843309AE74729BFD1002BBDD1D7
:102090000123BAE7BAF1650FDCD9BAF1660F18D19E
:1020A000002963680BDD216113B92268D00702D5CE
:1020B00001330B4423614FF00009A165DCE713B93C
:1020C0002268D20701D50233F4E70123F2E74FF08B
:1020D000670A0E9B994205DB23682161D807EAD580
:1020E0004B1CE7E70029CCBF0122C1F102021344D7
:1020F000E0E723685A0507D423694246314628465B
:10210000B84701302BD164E7BAF1650F40F2DC80AB
:10211000D4E9120100220023FEF70AFD002833D083
:10212000012331462846354AB84701303FF451AFC4
:10213000DDE90D38434502DB2368D8070FD5DDE91B
:10214000082331462846B84701303FF442AF4FF0EC
:10215000000908F1FF3804F11A0AC84509DC2368B0
:102160009B0700F10281E0680F9B9842B8BF1846B8
:1021700031E70123524631462846B84701303FF443
:1021800028AF09F10109E8E70D9B002B38DC01239A
:1021900031462846194AB84701303FF41AAFDDE905
:1021A0000D3959EA030302D12368D907D7D5DDE9F0
:1021B000082331462846B84701303FF40AAF4FF0B4
:1021C000000A04F11A0B0D9B5B42534501DC4B46A0
:1021D00093E701235A4631462846B84701303FF479
:1021E000F8AE0AF1010AEEE7FFFFEF7F8247000831
:1021F000864700088A4700088E4700089247000873
:10220000A36DDDF838A05345A8BF5346002B99466F
:1022100036DC4FF0000B29EAE97904F11A02A36DCC
:102220000A93A3EB09035B4531DC0D9B9A453ADC2D
:102230002368DA0737D40D9BAAEB03090A9BAAEBA4
:1022400003039945A8BF9946B9F1000F33DC4FF05D
:10225000000829EAE97904F11A0B0D9BAAEB0303A4
:10226000A3EB090343457FF77AAF01235A46314672
:102270002846B84701303FF4ACAE08F10108ECE75E
:10228000424631462846B8470130C2D1A1E6012373
:10229000314628460A92B84701303FF49AAE0A9A6E
:1022A0000BF1010BBBE73146DDE908232846B847AF
:1022B0000130C0D18DE60A9A4B4631462846424449
:1022C000B8470130C3D184E6DDF838A0BAF1010F78
:1022D00001DCDB0736D50123424631462846B847A4
:1022E00001303FF476AEDDE9082331462846B84791
:1022F00001303FF46EAED4E91201002200230AF14E
:10230000FF3AFEF715FCC0B9534608F10102314609
:102310002846B84701300CD15BE601235A463146C6
:102320002846B84701303FF454AE08F10108D045C3
:10233000F3DB4B4604F15002E0E64FF0000804F1F5
:102340001A0BF4E701234246E1E701234A463146EE
:102350002846B84701303FF43CAE08F10108E36875
:102360000F995B1A4345F0DCFDE64FF0000804F1DD
:102370001909F4E72DE9F047164698468A680B6973
:1023800007469342B8BF1346336091F843200C468A
:10239000DDF820900AB1013333602368990642BF0B
:1023A000336802333360256815F0060506D104F161
:1023B000190AE36832689B1AAB422BDC94F843306D
:1023C0002268003B18BF0123920630D441463846AC
:1023D00004F14302C847013023D02368226903F087
:1023E0000603042B14BF002533684FF0000608BF16
:1023F000E56804F11A0408BFED1A54F8123C08BF4E
:1024000025EAE5759342C4BF9B1AED18B5421AD16F
:10241000002008E00123524641463846C8470130B3
:1024200003D14FF0FF30BDE8F0870135C1E7302020
:10243000E11881F843005A1C94F8451022440233F5
:1024400082F84310C2E70123224641463846C84776
:102450000130E6D00136D9E72DE9FF470F7E9146DE
:10246000782F80460C469A460C9E01F1430207D80D
:10247000622F0AD8002F00F0D380582F00F0BA80C6
:1024800004F1420684F842703AE0A7F16303152B89
:10249000F6D801A151F823F0F12400080525000821
:1024A0008124000881240008812400088124000878
:1024B00005250008812400088124000881240008E3
:1024C00081240008072600082F250008C1250008E0
:1024D000812400088124000829260008812400089E
:1024E0002F2500088124000881240008C925000840
:1024F00033681A1D1B68326004F1420684F84230CA
:1025000001239EE033682068191D3160060601D55D
:102510001D6803E04506FBD5B3F90050002D03DA32
:102520002D236D4284F843300A23594811E0216875
:102530003368080653F8045B02D4490648BFADB2BD
:102540006F2F336014BF0A2308235148002184F8F9
:1025500043106668002EA8BF2168A660A4BF21F0C2
:10256000040121600DB9002E4BD01646B5FBF3F1E6
:1025700003FB1157C75D06F8017D2F46BB420D4690
:10258000F4D9082B0BD12368DF0708D523696168CC
:102590009942DEBF302306F8013C06F1FF36921B5C
:1025A00022614B4621464046CDF800A003AAFFF722
:1025B000E1FE01304AD14FF0FF3004B0BDE8F087B2
:1025C000236843F0200323607827324884F845705D
:1025D000236831681F0651F8045B02D45F0648BFC8
:1025E000ADB23160D90744BF43F0200323601DB171
:1025F0001023ABE72648E9E7236823F02003236094
:10260000F6E71646BDE733682568181D6169306036
:102610002E061B6801D5196002E06806FBD51980FB
:10262000002316462361BCE7336800211A1D32607F
:102630001E686268304600F0C6F908B1801B606011
:1026400063682361002384F84330AAE73246494691
:1026500040462369D0470130ADD023689B0713D48F
:10266000E068039B9842B8BF1846A6E701233246AC
:1026700049464046D04701309DD00135E368039973
:102680005B1AAB42F2DCEBE7002504F11906F5E733
:1026900094470008A5470008002310B50446C0E988
:1026A0000033C0E90433836081814366C281836162
:1026B000194608225C3000F006F90D4B2462636273
:1026C0000C4BA3620C4BE3620C4B23630C4B9C4200
:1026D00006D003F16802944202D0D0339C4205D167
:1026E00004F15800BDE8104000F06AB910BD00BF09
:1026F00041280008632800089B280008BF2800081C
:102700001C040020024A0349034800F069B800BFD6
:1027100004000020054300081400002041680C4B11
:1027200010B59942044601D001F0ECFDA168094BB7
:10273000994202D0204601F0E5FDE168064B99423E
:1027400004D02046BDE8104001F0DCBD10BD00BF44
:102750001C04002084040020EC04002010B50B4B66
:102760000B4C0C4A20461A6004210022FFF794FF0C
:1027700004F1680001220921FFF78EFF04F1D00067
:102780000222BDE810401221FFF786BF5405002049
:102790001C04002005270008014800F012B900BF02
:1027A0005D050020014800F00DB900BF5D05002067
:1027B00010B50446FFF7F0FF236A1BB1BDE81040D7
:1027C000FFF7F0BF044B2362044B1B68002BF5D1CD
:1027D000FFF7C4FFF2E700BF1D27000854050020E3
:1027E0002DE9F8430746884614460026D4E90195AA
:1027F000B9F1010905D52468002CF7D13046BDE8B0
:10280000F883AB89012B07D9B5F90E30013303D01A
:1028100029463846C04706436835E9E70FB407B58F
:10282000064904AB086853F8042B8168019301F052
:10283000D1FB03B05DF804EB04B07047100000203A
:1028400010B50C46B1F90E1000F06CF80028ABBFC3
:10285000636DA3891B1823F48053ACBF6365A38108
:1028600010BD2DE9F0411F468B890546DB050C465E
:10287000164605D502230022B1F90E1000F040F8EB
:10288000A389324623F48053A38128463B46B4F9FA
:102890000E10BDE8F04100F057B810B50C46B1F984
:1028A0000E1000F02DF8431CA38915BF606523F4BA
:1028B000805343F48053A38118BFA38110BDB1F9A5
:1028C0000E1000F00DB803460244934200D1704749
:1028D00003F8011BF9E70000004870475001002091
:1028E00038B50023054D044608462B60FFF7E7F98D
:1028F000431C02D12B6803B1236038BD580500206A
:1029000038B50446084611460022054D2A601A468D
:10291000FFF7F9F9431C02D12B6803B1236038BDDE
:102920005805002038B50446084611460022054DDA
:102930002A601A46FFF78AF9431C02D12B6803B1BB
:10294000236038BD5805002038B5044608461146B6
:102950000022054D2A601A46FFF795F9431C02D163
:102960002B6803B1236038BD58050020014B18685F
:10297000704700BF1000002070B500260C4D0D4CB4
:10298000641BA410A64209D101F0CAFE00260A4D1C
:102990000A4C641BA410A64205D170BD55F8043B37
:1029A00098470136EEE755F8043B98470136F2E7C1
:1029B000F84A0008F84A0008F84A0008FC4A0008EB
:1029C000704770477047034610B5C9B2024493423E
:1029D000184601D1002003E0047801338C42F6D17F
:1029E00010BD2DE9F74F03690C690746A3427EDB52
:1029F000013CA30000F1140501F11408009305EB5C
:102A00008403019358F8243055F8242001339A4266
:102A1000B2FBF3F608EB84092ED34FF0000AC4464C
:102A2000AE46D3465CF8043B98B206FB00A01B0CF4
:102A3000020C06FB0323DEF8002080B292B2121AC9
:102A40005A44DEF800004FEA134A9BB2C3EB22431C
:102A500003EB104392B242EA0342E1454FEA234BB3
:102A60004EF8042BDED2009BEB582BB9019B043BA4
:102A70009D421A462FD33C61384601F07BF900286D
:102A800025DB2946002058F8042BD1F800C01FFA96
:102A900082FE1FFA8CF3A3EB0E030344120CC2EB6D
:102AA000234202EB1C429BB243EA0243C1454FEA78
:102AB000224041F8043BE6D255F8242005EB84037C
:102AC00022B9043B9D421A460BD33C610136304685
:102AD00003B0BDE8F08F1268043B002ACBD1013C63
:102AE000C6E71268043B002AEFD1013CEAE7002068
:102AF000EEE70000000000002DE9F04F14461D46EF
:102B0000C76997B08346CDE90245239E7FB910205F
:102B100000F002FE0246CBF81C0020B9EF21A84BC2
:102B2000A84801F0C9FCC0E901770760C760DBF87D
:102B30001C30196859B15A68012393404A608B6070
:102B4000584600F0DFFE0022DBF81C301A602B1E16
:102B5000AFBF0023012223F000430393A8BF3360DB
:102B6000DDF80C80984BB8BF326033EA080312D10D
:102B700042F20F73229A1360C8F31303234300F049
:102B80005085249BDFF844A2002B00F052850AF107
:102B9000030300F04CBDDDE90223CDE90C23DDE9A0
:102BA0000C0100220023FDF7C3FF074658B10123A3
:102BB000229A1360249B13B1854B249A1360DFF88B
:102BC00014A200F036BD14AB019315AB0093584628
:102BD000DDE90C2301F07EF9C8F30A568146002E88
:102BE00077D0DDE90C010D9BA6F2FF36C3F313038A
:102BF00043F07F5343F44013129719460022764B5B
:102C0000FDF776FB68A3D3E90023FDF729FD68A350
:102C1000D3E90023FDF76EFB044630460D46FDF771
:102C2000B5FC65A3D3E90023FDF71AFD02460B4668
:102C300020462946FDF75EFB04460D46FDF7C0FF22
:102C400000220746002320462946FDF77BFF40B1BE
:102C50003846FDF79BFC22462B46FDF769FF00B97D
:102C6000013F162F53D8DDE90C015C4B03EBC70382
:102C7000D3E90023FDF766FF00284AD00023013F77
:102C80000F93149B9B1B5A1E46BFC3F101080023E0
:102C90004FF00008099248BF0993002F3BDB099BC6
:102CA0000E973B44099300230A93209B092B66D877
:102CB000052BC4BF043B2093209BC8BF0024A3F175
:102CC0000203D8BF0124032B64D8DFE803F02B38BC
:102CD0003656DDE914631E4406F23243202BC1BF91
:102CE000C3F1400308FA03F806F2124324FA03F38F
:102CF000D6BFC3F1200348EA030004FA03F0FDF74E
:102D000035FC0122A1F1F873013E129275E701230F
:102D1000B6E70F90B5E77B420A930023A8EB0708BC
:102D20000E93C2E700230B93219B002B35DC01237C
:102D30001A46CDE9073321920BE00123F3E7002384
:102D40000B93219BFB1808930133012B0793B8BF0A
:102D5000012300210422DBF81C0002F114059D422E
:102D60001FD94160584600F08DFD8246002839D1B8
:102D7000024640F2AF111A4BD2E60123E0E70124EC
:102D800000230B9420934FF0FF330022CDE907334B
:102D90001223D0E701230B93F5E7219BCDE90733FD
:102DA000D7E701315200D8E761436F63A787D23F6D
:102DB000B3C8608B288AC63FFB799F501344D33F2A
:102DC000C3470008DA4700080000F07FBF4700084B
:102DD00093470008924700080000F83FD0480008D9
:102DE00032480008DBF81C301860079B0E2B00F2FD
:102DF000A480002C00F0A180002F33DD864B07F06B
:102E00000F0203EBC203F805D3E90034CDE9043423
:102E10004FEA271416D5DDE90C01804B0326D3E9D0
:102E20000823FDF747FDCDE9020104F00F047B4DB7
:102E300054B9DDE90423DDE90201FDF73BFDCDE9ED
:102E4000020128E00226F2E7E10708D5DDE90401E6
:102E5000D5E90023FDF704FCCDE904010136641037
:102E60000835E5E700F0D280DDE90C017C426A4BD1
:102E700004F00F0203EBC203D3E90023FDF7F0FBDC
:102E800002260023CDE90201644D2411002C40F0FC
:102E9000B280002BD3D1DDE902450F9B002B00F05F
:102EA000B7800022204629465D4BFDF74BFE0028E7
:102EB00000F0AE80079B002B00F0AA80089B002B3F
:102EC00037DD7B1E2046049300222946554BFDF733
:102ED000C7FBCDE90201089C01363046FDF756FBE1
:102EE000DDE90223FDF7BCFB00224F4BFDF702FAA0
:102EF0000546A1F15076002C40F09A80DDE90201F0
:102F000000224A4BFDF7F4F902460B46CDE90223B5
:102F10002A463346FDF734FE002840F08E82DDE974
:102F200002012A4606F10043FDF70CFE002840F09E
:102F30002781DDE90C34CDE90234159B002BC0F26A
:102F400063810E2F00F36081334B03EBC703D3E99A
:102F50000034CDE90434219B002B03DA079B002BBE
:102F600040F30081DDE902455646DDE904232046B1
:102F70002946FDF79FFCFDF723FE8046FDF706FB83
:102F8000DDE90423FDF76CFB02460B46204629468B
:102F9000FDF7AEF908F13004079D06F8014BA6EBEA
:102FA0000A04A54202460B4640F01681FDF7A2F93D
:102FB000DDE9042304460D46FDF7E2FD002840F05C
:102FC000F880DDE9042320462946FDF7B1FD18B15C
:102FD00018F0010F40F0ED804946584600F092FC91
:102FE00000233370229B01371F60249B002B00F0CD
:102FF00020831E601DE3E20705D5D5E90023FDF718
:103000002FFB01230136641008353FE7022642E713
:10301000079C049761E700BFD0480008A848000853
:103020000000F03F0000244000001C40000014405D
:10303000704B0B9903EBC40353E90223544400295A
:1030400045D000206C49FDF735FC33462A46FDF794
:103050004FF95646CDE91001DDE90201FDF7B0FD5B
:103060000546FDF793FA02460B46DDE90201FDF73E
:103070003FF902460B463035CDE90223DDE9102346
:1030800006F8015BFDF75EFD002863D1DDE9022350
:1030900000205A49FDF72CF9DDE91023FDF752FD18
:1030A000002840F08780A6423FF443AFDDE91001DD
:1030B0000022534BFDF7D4FA0022CDE91001DDE9DF
:1030C00002014F4BFDF7CCFACDE90201C4E73146CE
:1030D0002846FDF7C5FA5646CDE910011394DDE9FF
:1030E0000201FDF76DFD0546FDF750FA02460B465D
:1030F000DDE90201FDF7FCF802460B46303506F823
:10310000015BA642CDE902234FF0000224D1DDE9A4
:103110001001394BFDF7EEF802460B46DDE90201DE
:10312000FDF72EFD002845D1DDE9102300203249AE
:10313000FDF7DEF802460B46DDE90201FDF702FD70
:1031400000283FF4F6AE139E731E139316F8013C4D
:10315000302BF8D0049F3FE7294BFDF781FACDE9EA
:103160000201BCE70CD1DDE904010022254BFDF78B
:1031700077FADDE90223FDF7F9FC002800F05B8116
:1031800000242546219B5646DB4304930027214615
:10319000584600F0B7FB002DDCD02FB1AF4203D072
:1031A0003946584600F0AEFB2946584600F0AAFBC7
:1031B000D0E7049733461E4613F8012D392A07D16C
:1031C0009A45F8D1049A0132049230228AF80020FC
:1031D0001A7801321A70BDE70022094BFDF740FA58
:1031E0000022002304460D46FDF7A2FC00283FF410
:1031F000BCAEF1E6D04800080000E03F0000F03F20
:1032000000002440000014400B9A002A00F0DB80EC
:10321000209A012A00F3BF80129A002A00F0B7809A
:1032200003F2334346460A9C099A01211A44584640
:103230009844099200F01AFC05465EB1099B002BE8
:1032400008DDB342A8BF3346099AA8EB0308F61A73
:10325000D31A09930A9BF3B10B9B002B00F0B780A4
:103260008CB129462246584600F0BEFC4A4601462B
:103270000546584600F010FC49460490584600F0B8
:1032800041FB049B99460A9B1A1B04D049465846A9
:1032900000F0AAFC81460121584600F0E7FB0E9B96
:1032A0000446002B00F0C9811A460146584600F03A
:1032B0009BFC209B0446012B00F38F80029B002B7C
:1032C00040F08780039BC3F31303002B40F08380FF
:1032D000039B23F000431B0D1B052BB1099B08F139
:1032E00001080133099301230A930E9B002B00F080
:1032F000AA81236904EB8303186900F06BFBC0F11A
:103300002000099B184410F01F0071D0C0F1200369
:10331000042B65DD099BC0F11C0003448044064476
:103320000993B8F1000F05DD49464246584600F0C2
:10333000B5FC8146099B002B05DD21461A465846FF
:1033400000F0ACFC04460F9B002B53D021464846AE
:1033500000F010FD00284DDA7B1E494604930A2236
:103360000023584600F0F0FA0B9B8146002B00F03A
:103370006C81002329460A22584600F0E5FA089B92
:103380000546002B61DC209B022B3BDC5DE0149B9F
:10339000C3F1360346E7079B5C1E0A9BA342BFBFEF
:1033A0000A9B0E9AE31AD218A8BF1C1B079BBEBF2C
:1033B0000A940E920024002BB5BFA8EB03064646E4
:1033C0000023079B30E746460A9C0B9D35E70A9A87
:1033D0005CE7002388E7029B86E700230A9388E7DF
:1033E0009FD0099A1C331A4498441E44099298E7C6
:1033F0000346F6E7079B0497002B20DC0893209BED
:10340000022B1EDD089B002B7FF4BCAE214605225B
:10341000584600F099FA01460446484600F0AAFCD6
:1034200000287FF7AFAE3123564606F8013B049BD8
:1034300001330493AAE6079C04972546F3E7079B0C
:1034400008930B9B002B00F00481002E05DD29461C
:103450003246584600F022FC05460A9B002B5AD003
:103460005846696800F00EFA064628B9024640F24E
:10347000EF21834BFFF754BB2A6905F10C0102329F
:1034800092000C3001F00AF801223146584600F053
:1034900005FC2F4605460AF101030793089B534498
:1034A0000B93029B03F001030A93079B2146013B08
:1034B00048460293FFF795FA3946089000F1300824
:1034C000484600F057FC2A4609902146584600F02D
:1034D0006DFCC268064602BB0146484600F04AFC45
:1034E0000246314658460C9200F00CFA209B0C9A8A
:1034F000079E43EA02010A9B194310D1B8F1390F24
:1035000029D0099B002B02DD089B03F13108029BA7
:1035100083F800803BE62846BBE70122E1E7099BF0
:10352000002B04DB20990B430A990B4320D1002A7E
:10353000EDDD49460122584600F0B0FB21468146A8
:1035400000F018FC002803DCE1D118F0010FDED0F8
:10355000B8F1390FD8D13923029A137033461E4679
:1035600016F8012C013B392A52D001321A700EE6AE
:10357000002A07DDB8F1390FEDD0029A08F10103F6
:10358000137004E6079B079A03F8018C0B9B934288
:1035900028D0494600230A22584600F0D5F9AF4208
:1035A00081464FF000034FF00A023946584607D1D2
:1035B00000F0CAF907460546079B0133079374E7F5
:1035C00000F0C2F92946074600230A22584600F0B7
:1035D000BBF90546F0E7089B0027002BCCBF1E4631
:1035E0000126564449460122584600F057FB214621
:1035F000814600F0BFFB0028B0DC02D118F0010FBB
:10360000ACD133461E4613F8012D302AFAD0BEE560
:103610009A45A4D1049B0133049331238AF80030E6
:10362000B5E5249BDFF85CA01BB10AF10803249ADE
:103630001360504617B0BDE8F08F209B012B7FF739
:103640003DAE0E9B0A9301205BE6089B002B7FF7A3
:10365000D6AE564621464846FFF7C3F900F130087A
:10366000089B06F8018BA6EB0A029342B3DD49469C
:1036700000230A22584600F067F98146EAE700BFB6
:1036800032480008B647000838B50546002940D042
:1036900051F8043C0C1F002BB8BFE41800F0E6F80A
:1036A0001C4A136833B9636014602846BDE838408B
:1036B00000F0E2B8A34208D9206821188B4201BF6C
:1036C00019685B6809182160EDE71A465B680BB161
:1036D000A342FAD911685018A0420BD120680144C6
:1036E000501883421160E0D118685B68084410608C
:1036F0005360DAE702D90C232B60D6E72068211843
:103700008B4201BF19685B680918216063605460CF
:10371000CBE738BD64050020024B0146186800F075
:1037200025B800BF1000002070B50F4E0C46316860
:10373000054611B900F0A2FE30602146284600F08F
:103740009DFE431C03D14FF0FF34204670BDC41CC6
:1037500024F00304A042F8D0211A284600F08EFE7F
:103760000130F2D1EFE700BF600500202DE9F843FA
:10377000CD1C25F0030508350C2D38BF0C25002D78
:10378000064601DBA94204D90C2333600020BDE8C2
:10379000F883DFF8D48000F069F8D8F800301C46D0
:1037A00044BB29463046FFF7BFFF431C044658D1AF
:1037B000D8F800402746002F43D1002C4BD0236877
:1037C0003946304604EB030900F058FE814542D1EA
:1037D000216830466D1A2946FFF7A6FF01303AD01E
:1037E00023682B442360D8F800305A6862BBC8F8BD
:1037F00000700FE02268521B20D40B2A17D96119E0
:10380000A342256018BF5960636808BFC8F800105C
:1038100062514B60304600F02FF804F10B00231D7D
:1038200020F00700C21A1CBF1B1AA350AFE7626842
:10383000A3420CBFC8F800205A60EBE72346646837
:10384000AEE73C467F68B6E71A465B68A342FBD109
:1038500000235360DEE70C233046336000F00CF8A1
:1038600094E70560D6E700BF640500200148FFF734
:10387000A8B800BF5C0500200148FFF7A3B800BF4F
:103880005C05002070B5C66904460D4676B9102067
:10389000FFF742FF0246E06120B96B21174B184841
:1038A00000F00AFEC0E901660660C660E669F368DA
:1038B00083B1E369DB6853F82500B8B9012101FA47
:1038C00005F6721D2046920000F014FE60B1C0E9BA
:1038D00001560EE021220421204600F00BFEE36990
:1038E000F060DB68002BE4D1002070BD026843F873
:1038F00025200023C0E90333F7E700BFC3470008D2
:103900004348000870B5C66905460C4676B91020D4
:10391000FFF702FF0246E86120B98F21084B0948F2
:1039200000F0CAFDC0E901660660C6603CB1EB6903
:103930006268DB6853F82210216043F8224070BDB2
:10394000C3470008434800082DE9F04107460C46EC
:103950001E4600200D6901F1140CDCF80030013026
:1039600099B202FB01611E0C0B0C02FB063389B2FB
:1039700001EB034185424FEA13464CF8041BECDC93
:103980000EB3A368AB4219DC616838460131FFF71A
:1039900079FF804628B90246BA210C4B0C4800F04A
:1039A0008BFD226904F10C01023292000C3000F010
:1039B00075FD21463846FFF7A5FF444604EB850315
:1039C00001355E6125612046BDE8F081324800087E
:1039D000434800080346B0F5803F3ABF0304102077
:1039E0000020B3F1807F3CBF1B020830B3F1805F41
:1039F0003CBF1B010430B3F1804F3CBF9B00023041
:103A0000002B05DB13F0804F00F1010008BF2020E0
:103A100070470368024613F007000BD0D90721D482
:103A2000980749BF5B089B08012013605CBF022018
:103A30001360704799B209B910201B0CD9B209B9AB
:103A400008301B0A190704BF1B090430990704BF7B
:103A50009B080230D90703D45B0800F1010003D0B2
:103A600013607047002070472020704710B50C4647
:103A70000121FFF707FF024628B940F24511044B28
:103A8000044800F019FD01234461036110BD00BF2B
:103A900032480008434800082DE9F04F14460A69EF
:103AA00023690F469A42A2BF23460C461F46D4F80C
:103AB00010A0D7F81090A36861680AEB0906B3421A
:103AC00085B0B8BF0131FFF7DDFE30B902464FF4D3
:103AD000B171434B434800F0EFFC00F114052B4655
:103AE000002205EB8608434521D307F1140104F1B8
:103AF000140202EB8A0201EB89030293131B153BAC
:103B000023F00303043304F11507BA4238BF04233A
:103B10000193029B03918B420CD8002E03DD58F8D1
:103B2000043D002B5AD0066105B0BDE8F08F43F884
:103B3000042BD8E7B1F800A0BAF1000F23D0A946B2
:103B40004FF0000C04F1140E5EF8047BD9F800303D
:103B50001FFA87FB9BB20AFB0B336344D9F800C002
:103B60003F0C4FEA1C4C0AFB07C707EB13479BB2FD
:103B700043EA074372454FEA174C49F8043BE3D840
:103B8000019B45F803C0039B0431B3F80290B9F1DF
:103B9000000F21D0AE464FF0000A2B6804F1140C40
:103BA000BCF800B0BEF802709BB209FB0B7757441B
:103BB00043EA07434EF8043B5CF8043B4FEA134AE0
:103BC000BEF80030624509FB0A3303EB17434FEAA6
:103BD000134AE5D8019FEB5104359AE7013E9CE773
:103BE00032480008434800082DE9F843154612F012
:103BF000030207460E4607D0254C013A002354F82D
:103C00002220FFF7A1FE0646AD103DD0FC697CB92D
:103C10001020FFF781FD0246F86128B940F2B31188
:103C20001C4B1D4800F048FCC0E901440460C4601E
:103C3000D7F81C80D8F808404CB940F271213846BA
:103C4000FFF714FF00230446C8F8080003604FF094
:103C50000009EB070AD5314622463846FFF71CFF1C
:103C6000804631463846FFF74DFE46466D100BD074
:103C7000206838B9224621463846FFF70DFF2060FC
:103C8000C0F800900446E4E73046BDE8F88300BF82
:103C90009C480008C3470008434800082DE9F04746
:103CA0000C46074691462369496803EB6218A368EE
:103CB0004FEA621A08F10106B3420BDB3846FFF700
:103CC000E1FD054648B902464FF4EF71274B2848FD
:103CD00000F0F2FB01315B00EEE7002300F114017C
:103CE00000F110021846534533DB20692AEAEA7ACC
:103CF00004F1140319F01F0901EB8A0103EB800C96
:103D00002BD08A460022C9F1200E186800FA09F06B
:103D100010434AF8040B53F8042B9C4522FA0EF288
:103D2000F3D8ACEB0403153B23F00303043304F195
:103D30001500844538BF0423CA500AB108F10206B1
:103D4000013E384621462E61FFF7DCFD2846BDE8DE
:103D5000F08742F8040F0133C5E7043953F8042B08
:103D60009C4541F8042FF9D8EAE700BF3248000823
:103D70004348000803460A69006930B5801A0ED12D
:103D80001433143103EB820401EB820154F8045D17
:103D900051F8042D954203D005D24FF0FF3030BDCD
:103DA000A342F3D3FBE70120F9E700002DE9F74F29
:103DB00089460646114648461446FFF7DBFF051EB6
:103DC00012D129463046FFF75DFD024628B940F280
:103DD00037213E4B3E4800F06FFB0123C0E904351C
:103DE000104603B0BDE8F08FBCBF4B46A14630463D
:103DF000D9F80410BABF1C4601250025FFF742FD83
:103E0000024618B940F24521304BE3E700F1140BAC
:103E1000D9F8107009F11003C5604FF0000C09F1DA
:103E20001405D946266904F1140E05EB87080EEB3C
:103E300086060193019B5EF8040B53F804AF81B230
:103E400001931FFA8AF35B1A000C6344C0EB1A401B
:103E500000EB23409BB243EA004376454FEA204CF7
:103E600049F8043BE6D8331B153B23F00303153414
:103E70000433A64238BF04231D445B441E462C462F
:103E800044450ED308F10301491B21F00301033D12
:103E9000A84538BF00210B4453F8041D99B11761A0
:103EA0009EE7E64654F8041B1FFA81FCF444080C14
:103EB000714400EB2C4089B241EA00414FEA204CAA
:103EC00046F8041BDCE7013FE6E700BF3248000884
:103ED000434800082DE97343012190469946089E06
:103EE000FFF7D0FC044630B9024640F20F31234BB5
:103EF000234800F0E1FAC9F30A55C9F313030DB1E1
:103F000043F480130193B8F1000324D06846009372
:103F1000FFF77FFDDDE90012D8B1C0F1200302FAFE
:103F200003F30B43C24063610192019B002B0CBF62
:103F300001220222A3612261ADB1A5F233450544FD
:103F40003560C0F13500099B1860204602B0BDE81D
:103F500070836161E9E701A8FFF75BFD019B012226
:103F600063612030E7E7A0F2324004EB8203306067
:103F70001869FFF72FFDC0EB4210E4E73248000854
:103F800043480008936810B4013B002B936007DAA4
:103F90009469A34201DB0A2902D110BC00F0DAB90E
:103FA0001368581C10601970084610BC7047F8B5AB
:103FB00006460F461446D518AC4201D1002007E052
:103FC0003A46304614F8011BFFF7DCFF431CF3D1DF
:103FD000F8BD00002DE9F04F0D4614469846064600
:103FE0009DB018B1036A0BB9FEF7E2FB6B6ED907FF
:103FF00005D4AB899A0502D4A86DFEF7E2FCAB8923
:104000001B0701D52B699BB92946304600F0E0F922
:1040100070B16B6EDC0704D54FF0FF301DB0BDE80A
:10402000F08FAB899805F7D4A86DFEF7CBFCF3E7CA
:104030000023099320238DF8293030234FF0010904
:10404000CDF80C80DFF8A8818DF82A3023469A46F7
:1040500013F8012B0AB1252AF9D1BAEB040B0BD0C6
:104060005B46224629463046FFF7A1FF013000F0AB
:10407000A780099A5A4409929AF80030002B00F060
:104080009F8000234FF0FF32CDE905230AF1010A9A
:10409000049307938DF853301A935446052214F86D
:1040A000011B5348FEF78FFC049AD8B9D10644BFD0
:1040B00020238DF85330130744BF2B238DF8533042
:1040C0009AF800302A2B15D0544600204FF00A0CE5
:1040D000079A214611F8013B303B092B4BD9B0B16F
:1040E000079214E0A0EB080309FA03F31343A24676
:1040F0000493D2E7039B191D1B680391002BBBBFE0
:104100005B4242F0020207930793B8BF0492237800
:104110002E2B0AD163782A2B32D1039B02341A1D2D
:104120001B68039243EAE3730593DFF8C8A00322F8
:1041300050462178FEF747FC38B14022049BA0EBA3
:104140000A00824013430134049314F8011B062231
:1041500029488DF82810FEF736FC00283FD0274B61
:104160001BBB039B073323F0070308330393099B0F
:104170003B4409936AE70C4601200CFB0232A8E796
:1041800000234FF00A0C194601340593204610F81D
:10419000012B303A092A03D9002BC6D00591C4E778
:1041A000044601230CFB0121F0E703AB00932A46F0
:1041B0003046134B04A9FDF7B1FE0746781CD6D153
:1041C0006B6ED90705D4AB899A0502D4A86DFEF7AA
:1041D000F9FBAB895B063FF51FAF09981EE703AB00
:1041E00000932A463046064B04A9FEF735F9E4E76A
:1041F000984900089E490008A24900081D1F0008B0
:10420000AF3F0008B1F90C20F8B5160705460C467B
:1042100054D44B68002B02DC0B6C002B48DDE66AA3
:10422000002E45D0002312F480522F68216A2B60A3
:1042300030D0626DA389590705D56368D21A636BC4
:104240000BB1236CD21A00232846E66A216AB047D4
:10425000431CA38906D129681D292BD8284A0A4165
:10426000D60727D4002262602269D904226004D5CF
:10427000421C01D12B6803B96065616B2F60B9B135
:1042800004F14403994202D02846FFF7FDF90023C8
:1042900063630DE001232846B0470246501CC9D194
:1042A0002B68002BC6D01D2B01D0162B1DD12F60E3
:1042B000002021E043F040031BB21AE00F69002FF9
:1042C000F6D0930718BF00230E6808BF4B69F61B92
:1042D0000F608B60002EEBDD33463A462846216A9C
:1042E000D4F828C0E047002807DCB4F90C3043F0CC
:1042F00040034FF0FF30A381F8BD0744361AE9E7C9
:10430000FEFFBFDF38B50B6905460C4613B9002523
:10431000284638BD18B1036A0BB9FEF749FAB4F95B
:104320000C30002BF3D0626ED00704D4990502D470
:10433000A06DFEF746FB28462146FFF763FF636E3C
:104340000546DA07E4D4A3899B05E1D4A06DFEF706
:1043500039FBDDE7F8B50E461446054618B1036A89
:104360000BB9FEF725FAA369A360A3891A0701D543
:10437000236943B92146284600F02AF818B14FF0C6
:10438000FF373846F8BD23682269F6B2981A636988
:104390003746834205DC21462846FFF7B3FF002855
:1043A000EDD1A368013BA36023685A1C22601E70F4
:1043B0006269431C9A4204D0A389DB07E1D50A2E27
:1043C000DFD121462846FFF79DFF0028D9D0D6E748
:1043D00038B5294B054618680C4618B1036A0BB965
:1043E000FEF7E6F9B4F90C30190722D4DA0607D43F
:1043F00009222A6043F040034FF0FF30A38133E0ED
:10440000580712D5616B41B104F14403994202D0BF
:104410002846FFF739F900236363A38923F02403B7
:10442000A3810023636023692360A38943F0080309
:10443000A38123694BB9A38903F42073B3F5007FEB
:1044400003D02146284600F0C0F8B4F90C3013F030
:1044500001020AD00022A26062695242A26122696E
:1044600042B913F08000C5D138BD990758BF6269C1
:10447000A260F4E70020F7E71000002038B5002321
:10448000054D044608462B60FDF74AFC431C02D14B
:104490002B6803B1236038BD580500200A449142BF
:1044A00000F1FF3300D1704710B511F8014B914274
:1044B00003F8014FF9D110BD1FB514461A46094B38
:1044C00005461B68D86854B9074B1C46CDE9013432
:1044D00000912B46054900F041F800F0D5F8044B57
:1044E000F4E700BF10000020EE490008C0490008B2
:1044F000B349000870B5A1FB02543CB92946FFF747
:1045000035F9064628B90026304670BD0C220260F7
:10451000F9E72A462146FEF7D6F9F5E782B001B958
:1045200001A942B14BB113780B601278101E18BF6D
:10453000012002B070471046FBE76FF00100F8E77A
:104540000346084641B1FF2A04D98A224FF0FF30C2
:104550001A60704701200A70704700000EB403B55E
:10456000014603AB054853F8042B00680193FFF79D
:1045700031FD02B05DF804EB03B07047100000207D
:1045800070B50C46B1F90E10154600291E4696B0BE
:104590000CDAA389002113F0800F14BF40234FF4DD
:1045A0008063002031602B6016B070BD6A4600F059
:1045B00049F80028EDDB019901F47041A1F50053A1
:1045C000594259414FF48063EBE78B89F7B59D075A
:1045D00006460C4607D504F14703236023610123F7
:1045E000636103B0F0BD6A4601ABFFF7C9FF009FEE
:1045F000054639463046FFF7B9F848B9B4F90C30EA
:104600009A05EED423F0030343F00203A381E2E70B
:10461000A389C4E9040743F08003A381019B2060C0
:104620005BB13046B4F90E1000F01EF828B1A38932
:1046300023F0030343F00103A381A3891D43A58154
:10464000CFE7000038B50023064D04460846114662
:104650002B60FDF73FFB431C02D12B6803B12360A5
:1046600038BD00BF5805002038B50023054D04466D
:1046700008462B60FDF73DFB431C02D12B6803B1BC
:10468000236038BD58050020062008B500F02CF83E
:104690000120FDF7D0FA1F2938B505460C4604D98C
:1046A000162303604FF0FF3038BDC26B12B152F8D1
:1046B00021304BB9284600F031F822460146284601
:1046C000BDE8384000F018B8012B0AD0591C03D1BE
:1046D000162303600120E7E70021204642F824105A
:1046E00098470020E0E70000024B01461868FFF7FA
:1046F000D2BF00BF1000002038B50023064D04468D
:10470000084611462B60FDF786FA431C02D12B6840
:1047100003B1236038BD00BF58050020FDF774BA0F
:10472000F8B500BFF8BC08BC9E467047F8B500BF9E
:08473000F8BC08BC9E4670476E
:10473800436F6D6974617320416B6164656D796164
:104748000D0A000074656D7065726174757265207C
:10475800445331384232303A20256620430D0A004E
:1047680074656D7065726174757265204154483264
:10477800303A20256620430D0A00494E4600696EEE
:1047880066004E414E006E616E00300030313233AB
:1047980034353637383941424344454600303132A2
:1047A8003334353637383961626364656600496E7B
:1047B80066696E697479004E614E005245454E54E3
:1047C800206D616C6C6F63207375636365656465E8
:1047D80064002F6275696C642F676E752D746F6F36
:1047E8006C732D666F722D73746D33325F31322E98
:1047F800332E72656C312E32303234303330362DF0
:10480800313733302F7372632F6E65776C69622F7F
:104818006E65776C69622F6C6962632F7374646C60
:1048280069622F64746F612E630042616C6C6F6300
:1048380020737563636565646564002F6275696CD0
:10484800642F676E752D746F6F6C732D666F722D84
:1048580073746D33325F31322E332E72656C312EA4
:1048680032303234303330362D313733302F7372A3
:10487800632F6E65776C69622F6E65776C69622F3E
:104888006C6962632F7374646C69622F6D707265F2
:10489800632E630005000000190000007D00000081
:1048A8000080E03779C34143176E05B5B5B8934624
:1048B800F5F93FE9034F384D321D30F94877825AF0
:1048C8003CBF737FDD4F1575000000000000F03F0E
:1048D80000000000000024400000000000005940D3
:1048E8000000000000408F40000000000088C34026
:1048F80000000000006AF8400000000080842E419B
:1049080000000000D01263410000000084D79741E6
:104918000000000065CDCD41000000205FA00242EC
:10492800000000E876483742000000A2941A6D4261
:10493800000040E59C30A2420000901EC4BCD64254
:1049480000003426F56B0C430080E03779C34143FF
:1049580000A0D8855734764300C84E676DC1AB4375
:10496800003D9160E458E143408CB5781DAF154493
:1049780050EFE2D6E41A4B4492D54D06CFF080446E
:10498800F64AE1C7022DB544B49DD9794378EA4483
:10499800232D302B2000686C4C0065666745464720
:1049A800004300504F534958002E002C2066756E66
:1049B8006374696F6E3A2000617373657274696F0E
:1049C8006E2022257322206661696C65643A206630
:1049D800696C6520222573222C206C696E65202560
:1049E80064257325730A0000202020202020202021
:1049F8002028282828282020202020202020202087
:104A080020202020202020208810101010101010A6
:104A180010101010101010100404040404040404EE
:104A2800040410101010101010414141414141017F
:104A3800010101010101010101010101010101015E
:104A4800010101101010101010424242424242026D
:104A5800020202020202020202020202020202022E
:104A680002020210101010200000000000000000D8
:104A7800000000000000000000000000000000002E
:104A8800000000000000000000000000000000001E
:104A9800000000000000000000000000000000000E
:104AA80000000000000000000000000000000000FE
:104AB80000000000000000000000000000000000EE
:104AC80000000000000000000000000000000000DE
:104AD80000000000000000000000000000000000CE
:084AE8000000000000000000C6
:084AF00080B6FF7F0100000009
:044AF800550100085C
:044AFC00310100087C
:104B000000127A0000000000030000001C040020D6
:104B100014000020000000001C0400208404002079
:104B2000EC04002000000000000000000000000075
:104B30000000000000000000000000000000000075
:104B40000000000000000000000000000000000065
:104B50000000000000000000000000000000000055
:104B60004300000000000000000000000000000002
:104B70000000000000000000000000000000000035
:104B800043000000000000000000000000000000E2
:104B90000000000000000000000000000000000015
:104BA00043000000000000000000000000000000C2
:104BB00000000000000000000000000000000000F5
:104BC00043000000000000000000000000000000A2
:104BD00000000000000000000000000000000000D5
:104BE0004300000000000000000000000000000082
:104BF00000000000000000000000000000000000B5
:104C00004300000000000000000000000000000061
:104C10000000000000000000000000000000000094
:104C20004300000000000000000000000000000041
:104C30000000000000000000000000000000000074
:104C4000414500081D45000800000000EF4900082C
:104C5000B1490008EE490008EE490008EE49000895
:104C6000EE490008EE490008EE490008EE49000848
:104C7000EE490008EE490008FFFFFFFFFFFFFFFFBE
:104C8000FFFFFFFFFFFF00000100415343494900C0
:104C90000000000000000000000000000000000014
:104CA000000000000000000000004153434949009B
:104CB00000000000000000000000000000000000F4
:0C4CC000000000000000000000000000E8
:0400000508001D8D45
:00000001FF
