:020000040800F2
:10000000002800204D0D00089D0D00089D0D0008E2
:100010009D0D00089D0D00089D0D000800000000CA
:100020000000000000000000000000009D0D00081E
:100030009D0D0008000000009D0D00089D0D0008AA
:100040009D0D00089D0D00089D0D00089D0D0008E8
:100050009D0D00089D0D00089D0D00089D0D0008D8
:100060009D0D00089D0D00089D0D00089D0D0008C8
:100070009D0D00089D0D0008D90500089D0D000884
:100080009D0D00089D0D00089D0D00089D0D0008A8
:100090009D0D00089D0D00089D0D00089D0D000898
:1000A0009D0D00089D0D00089D0D00089D0D000888
:1000B000DD0700089D0D00089D0D00089D0D00083E
:1000C0009D0D00089D0D00089D0D00089D0D000868
:1000D0009D0D00089D0D00089D0D00089D0D000858
:1000E0009D0D00089D0D0008000000009D0D0008FA
:1000F0009D0D00089D0D00089D0D00089D0D000838
:100100009D0D00089D0D00089D0D00089D0D000827
:100110009D0D00089D0D00089D0D00089D0D000817
:100120009D0D00089D0D00089D0D00089D0D000807
:1001300010B5054C237833B9044B13B10448AFF321
:1001400000800123237010BD6C000020000000001F
:10015000141C000808B5034B1BB103490348AFF357
:10016000008008BD0000000070000020141C000882
:100170004FF0FF0C1CEAD0521EBF1CEAD15392EA8A
:100180000C0F93EA0C0F6FD01A4480EA010C400266
:1001900018BF5FEA41211ED04FF0006343EA5010C0
:1001A00043EA5111A0FB01310CF00040B1F5000F02
:1001B0003EBF490041EAD3715B0040EA010062F1B1
:1001C0007F02FD2A1DD8B3F1004F40EBC25008BF9B
:1001D00020F00100704790F0000F0CF0004C08BFB9
:1001E00049024CEA502040EA51207F3AC2BFD2F186
:1001F000FF0340EAC250704740F400004FF0000394
:10020000013A5DDC12F1190FDCBF00F000407047CD
:10021000C2F10002410021FA02F1C2F1200200FA0B
:1002200002FC5FEA310040F1000053EA4C0308BFD2
:1002300020EADC70704792F0000F00F0004C02BF23
:10024000400010F4000F013AF9D040EA0C0093F09E
:10025000000F01F0004C02BF490011F4000F013BF8
:10026000F9D041EA0C018FE70CEAD15392EA0C0F66
:1002700018BF93EA0C0F0AD030F0004C18BF31F0D1
:10028000004CD8D180EA010000F00040704790F0A7
:10029000000F17BF90F0004F084691F0000F91F04B
:1002A000004F14D092EA0C0F01D142020FD193EA11
:1002B0000C0F03D14B0218BF084608D180EA010099
:1002C00000F0004040F0FE4040F40000704740F075
:1002D000FE4040F44000704780F0004002E000BF64
:1002E00081F0004142001FBF5FEA410392EA030F21
:1002F0007FEA226C7FEA236C6AD04FEA1262D2EB6B
:100300001363C1BFD218414048404140B8BF5B426F
:10031000192B88BF704710F0004F40F4000020F008
:100320007F4018BF404211F0004F41F4000121F01E
:100330007F4118BF494292EA030F3FD0A2F1010268
:1003400041FA03FC10EB0C00C3F1200301FA03F1A6
:1003500000F0004302D5494260EB4000B0F5000FC9
:1003600013D3B0F1807F06D340084FEA310102F188
:100370000102FE2A51D2B1F1004F40EBC25008BF3A
:1003800020F0010040EA03007047490040EB000004
:10039000013A28BFB0F5000FEDD2B0FA80FCACF105
:1003A000080CB2EB0C0200FA0CF0AABF00EBC25032
:1003B00052421843BCBFD0401843704792F0000F20
:1003C00081F4000106BF80F400000132013BB5E773
:1003D0004FEA41037FEA226C18BF7FEA236C21D0E9
:1003E00092EA030F04D092F0000F08BF084670474E
:1003F00090EA010F1CBF0020704712F07F4F04D11C
:10040000400028BF40F00040704712F100723CBF2E
:1004100000F50000704700F0004343F0FE4040F458
:10042000000070477FEA226216BF08467FEA236316
:100430000146420206BF5FEA412390EA010F40F401
:10044000800070474FF0000304E000BF10F000434D
:1004500048BF40425FEA000C08BF704743F0964334
:1004600001464FF000001CE050EA010208BF70474F
:100470004FF000030AE000BF50EA010208BF7047D6
:1004800011F0004302D5404261EB41015FEA010CEB
:1004900002BF84460146002043F0B64308BFA3F1E3
:1004A0008053A3F50003BCFA8CF2083AA3EBC253C5
:1004B00010DB01FA02FC634400FA02FCC2F12002E4
:1004C000BCF1004F20FA02F243EB020008BF20F01B
:1004D0000100704702F1200201FA02FCC2F1200281
:1004E00050EA4C0021FA02F243EB020008BF20EA76
:1004F000DC7070474FEA4002B2F1FE4F0FD34FF06D
:100500009E03B3EB12620DD94FEA002343F0004380
:1005100010F0004F23FA02F018BF404270474FF02E
:100520000000704712F1610F01D1420205D110F0B5
:10053000004008BF6FF0004070474FF00000704768
:1005400080B400AF00BFBD4680BC704780B483B0AC
:1005500000AF0346FB7197F90730002B0BDBFB79EB
:1005600003F01F02064997F907305B09012000FAE2
:1005700002F241F8232000BF0C37BD4680BC704713
:1005800000E100E080B483B000AF03463960FB7146
:1005900097F90730002B0ADB3B68DAB20C4997F970
:1005A00007301201D2B20B4483F800230AE03B6803
:1005B000DAB20849FB7903F00F03043B1201D2B20F
:1005C0000B441A7600BF0C37BD4680BC704700BF95
:1005D00000E100E000ED00E080B400AF074B5B6895
:1005E000064A43F400535360054B1B68044A23F04A
:1005F0000103136000BFBD4680BC7047000002408D
:100600004400024080B400AF074B9B69064A43F0A8
:1006100004039361054B5B68044A43F0B0035360E5
:1006200000BFBD4680BC704700100240000801407A
:1006300080B500AFFFF7E6FF00F02AF8104B9B698A
:100640000F4A43F4804393610E4BDB680D4A43F03D
:100650000803D3600C4B1B680A4A0C49A1FB031327
:100660001B0C9360074B5B69064A43F080035361A0
:10067000044BDB68034A43F40053D36000BF80BDE2
:10068000001002400038014000000020C5B3A291D4
:1006900080B500AF114B5B69104A43F00103536111
:1006A0000F4B1B680E4A43F0900313600C4B0D4A2E
:1006B000DA600B4B0C4A9A60094B1B68084A43F0FE
:1006C00002031360064B00225A600E20FFF73EFF24
:1006D00003210E20FFF756FF00BF80BD001002402F
:1006E00044000240040000200438014080B485B07A
:1006F00000AF0346FB71134AFB791370124B114A8A
:10070000DA60114B01225A600F4B1B680E4A43F00E
:100710000103136000BF0C4B1B6803F00103002BA7
:10072000F9D10023FB6002E0FB680133FB60FB684A
:10073000632BF9DD054B00221A7000BF1437BD464C
:1007400080BC704704000020440002408800002064
:1007500080B483B000AF0346FB7197F90730002BDC
:100760000BDBFB7903F01F02064997F907305B09A1
:10077000012000FA02F241F8232000BF0C37BD46E9
:1007800080BC704700E100E080B483B000AF034656
:100790003960FB7197F90730002B0ADB3B68DAB24E
:1007A0000C4997F907301201D2B20B4483F80023A9
:1007B0000AE03B68DAB20849FB7903F00F03043B17
:1007C0001201D2B20B441A7600BF0C37BD4680BC72
:1007D000704700BF00E100E000ED00E080B400AF32
:1007E0004FF080431B694FF0804223F001031361F7
:1007F0004FF080431B684FF0804223F001031360E9
:10080000044B01221A70044B02221A7000BFBD462D
:1008100080BC7047880000208C00002080B400AFAE
:10082000134B9B69124A43F004039361114B5B68BD
:10083000104A43F4403353600E4B5B680D4A43F457
:10084000802353600B4BDB680A4A43F48053D36028
:10085000074B9B69064A43F004039361054B5B68B1
:10086000044A43F44053536000BFBD4680BC704708
:10087000001002400008014080B400AF084B9B69A3
:10088000074A43F400639361064B4FF47A72DA62CD
:10089000044B08229A6200BFBD4680BC704700BF6F
:1008A00000100240002C014080B500AF124BDB6904
:1008B000114A43F00103D3614FF080434FF4FA52E1
:1008C000DA624FF080434FF47A729A624FF08043BD
:1008D000DB684FF0804243F00103D3601C20FFF738
:1008E00037FF01211C20FFF74FFF4FF0804301220B
:1008F0001A6000BF80BD00BF0010024080B483B00A
:1009000000AF224B9B6803F48053002B03D1204B94
:1009100003221A7036E01F4B00225A621D4B1B68DF
:100920001C4A43F001031360184BDB68174A23F499
:100930008053D36000BF174B5B6AB3F5F07FFAD3E7
:10094000124BDB68114A43F48053D36000BF114B54
:100950005B6AB3F5027FFAD30C4B9B680023FB71F3
:1009600000BF0C4B5B6AB3F5707FFAD3FB79002BA9
:1009700002D0074B03221A70064B1B68054A23F06E
:10098000010313600C37BD4680BC7047000801406E
:100990008C000020002C014080B483B000AF0346DF
:1009A000FB711C4B00225A621A4B1B68194A43F018
:1009B0000103136000BF174B5B6A042BFBD9164B76
:1009C000DB68154A23F48053D36000BF114B5B6A88
:1009D000092BFBD9FB79002B05D00F4BDB680E4AA6
:1009E00043F48053D36000BF0A4B5B6A452BFBD9AD
:1009F000094BDB68084A43F48053D360054B1B68FE
:100A0000044A23F00103136000BF0C37BD4680BCCD
:100A1000704700BF002C01400008014080B584B041
:100A200000AF0346FB710023FB730FE0FB7B012249
:100A300002FA03F35AB297F9073013405BB2DBB204
:100A40001846FFF7A9FFFB7B0133FB73FB7B072BEA
:100A5000ECD900BF00BF1037BD4680BD80B400AFE9
:100A60004FF0804300225A624FF080431B684FF0E2
:100A7000804243F00103136000BFBD4680BC704755
:100A800080B500AFFFF73AFF074B1B78032B08D068
:100A9000CC20FFF7C3FF4420FFF7C0FFFFF7DEFFC6
:100AA00000E000BF80BD00BF8C00002080B500AF1B
:100AB000FFF724FF174B1B78032B29D0CC20FFF71F
:100AC000ADFFBE20FFF7AAFF134B5B781A46134B0E
:100AD0001A80124B1B881B029AB2104B1A800E4BC5
:100AE0001B781A460D4B1B8813439AB20B4B1A8086
:100AF0000A4B1B881846FFF7A5FC03464FF07651BA
:100B00001846FFF735FB03461A46054B1A6000E00E
:100B100000BF80BD8C000020900000209A000020C3
:100B20009C00002080B500AFFFF778FEFFF7A4FE21
:100B3000FFF7BAFE00BF80BD80B500AF174B1B7832
:100B4000032B24D801A252F823F000BF5D0B00084C
:100B5000970B0008690B0008810B0008FFF790FF56
:100B60000E4B01221A7017E00D4BDB680C4A83F420
:100B70000063D360FFF79AFF084B00221A700BE066
:100B8000074BDB68064A43F40063D36004E0034B81
:100B900000221A7000E000BF00BF80BD8C00002062
:100BA0000008014080B584B000AF78607B68FB73BB
:100BB000FB7B1846FFF79AFD7B6818461037BD4649
:100BC00080BD000080B500AFFFF7ACFFFFF730FD40
:100BD0000B4B00221A70FFF741FFFFF7ADFF084BE8
:100BE0001B78012BF9D1074B1B681846FFF782FCD5
:100BF00003465BB21946044800F094F9EDE700BFE4
:100C0000880000209C0000202C1C000880B586B0C5
:100C100000AFF860B9607A6000237B610AE0AFF34F
:100C200000800146BB685A1CBA60CAB21A707B6960
:100C300001337B617A697B689A42F0DB7B681846F6
:100C40001837BD4680BD80B586B000AFF860B9608A
:100C50007A6000237B6109E0BB685A1CBA601B788C
:100C60001846FFF79FFF7B6901337B617A697B68D8
:100C70009A42F1DB7B6818461837BD4680BD80B4C8
:100C800083B000AF78604FF0FF3318460C37BD4695
:100C900080BC704780B483B000AF786039603B6837
:100CA0004FF400525A60002318460C37BD4680BCF2
:100CB000704780B483B000AF7860012318460C37CA
:100CC000BD4680BC704780B485B000AFF860B960A5
:100CD0007A60002318461437BD4680BC7047000078
:100CE00080B586B000AF7860144A154BD31A7B618B
:100CF0007B693B61134B1B68002B02D1114B124ADD
:100D00001A60104B1A687B6813443A699A4207D2FA
:100D100000F0ACF903460C221A604FF0FF3309E0F3
:100D2000084B1B68FB60074B1A687B681344054A35
:100D30001360FB6818461837BD4680BD00280020A8
:100D400000040000A0000020F00100200D488546AE
:100D5000FFF7F6FB0C480D490D4A002302E0D4587A
:100D6000C4500433C4188C42F9D30A4A0A4C0023F5
:100D700001E013600432A242FBD300F07DF9FFF7DB
:100D800021FFFEE700280020000000206C0000206A
:100D9000781C00086C000020F0010020FEE7000035
:100DA000002310B50446C0E90033C0E90433836072
:100DB00081814366C2818361194608225C3000F05C
:100DC00006F90D4B246263620C4BA3620C4BE36289
:100DD0000C4B23630C4B9C4206D003F168029442F7
:100DE00002D0D0339C4205D104F15800BDE8104038
:100DF00000F066B910BD00BF490F00086B0F000876
:100E0000A30F0008C70F0008A4000020024A0349EE
:100E1000034800F069B800BF10000020591900080D
:100E20002000002041680C4B10B59942044601D0C7
:100E300000F092FDA168094B994202D0204600F0D3
:100E40008BFDE168064B994204D02046BDE8104076
:100E500000F082BD10BD00BFA40000200C010020E6
:100E60007401002010B50B4B0B4C0C4A20461A6045
:100E700004210022FFF794FF04F1680001220921F8
:100E8000FFF78EFF04F1D0000222BDE810401221CE
:100E9000FFF786BFDC010020A40000200D0E000833
:100EA000014800F00EB900BFE5010020014800F044
:100EB00009B900BFE501002010B50446FFF7F0FFB7
:100EC000236A1BB1BDE81040FFF7F0BF044B23625B
:100ED000044B1B68002BF5D1FFF7C4FFF2E700BFFE
:100EE000250E0008DC0100202DE9F843074688465E
:100EF00014460026D4E90195B9F1010905D5246805
:100F0000002CF7D13046BDE8F883AB89012B07D917
:100F1000B5F90E30013303D029463846C0470643A1
:100F20006835E9E70FB407B5064904AB086853F81C
:100F3000042B8168019300F0E5F903B05DF804EB40
:100F400004B070471C00002010B50C46B1F90E101B
:100F500000F068F80028ABBF636DA3891B1823F469
:100F60008053ACBF6365A38110BD2DE9F0411F46DE
:100F70008B890546DB050C46164605D50223002263
:100F8000B1F90E1000F03CF8A389324623F48053E7
:100F9000A38128463B46B4F90E10BDE8F04100F0AD
:100FA00053B810B50C46B1F90E1000F029F8431CE7
:100FB000A38915BF606523F4805343F48053A38154
:100FC00018BFA38110BDB1F90E1000F009B8034697
:100FD0000244934200D1704703F8011BF9E7000077
:100FE00038B50023054D044608462B60FFF747FE41
:100FF000431C02D12B6803B1236038BDE0010020FF
:1010000038B50446084611460022054D2A601A46A6
:10101000FFF759FE431C02D12B6803B1236038BD92
:10102000E001002038B50446084611460022054D6F
:101030002A601A46FFF7EAFD431C02D12B6803B170
:10104000236038BDE001002038B50446084611464B
:101050000022054D2A601A46FFF7F5FD431C02D118
:101060002B6803B1236038BDE0010020014B1868F4
:10107000704700BF1C00002070B500260C4D0D4CC1
:10108000641BA410A64209D100F0C4FD00260A4D3D
:101090000A4C641BA410A64205D170BD55F8043B50
:1010A00098470136EEE755F8043B98470136F2E7DA
:1010B000701C0008701C0008701C0008741C0008DC
:1010C000704770477047000038B50546002940D08A
:1010D00051F8043C0C1F002BB8BFE41800F0DEF8F8
:1010E0001C4A136833B9636014602846BDE8384071
:1010F00000F0DAB8A34208D9206821188B4201BF5A
:1011000019685B6809182160EDE71A465B680BB146
:10111000A342FAD911685018A0420BD120680144AB
:10112000501883421160E0D118685B680844106071
:101130005360DAE702D90C232B60D6E72068211828
:101140008B4201BF19685B680918216063605460B5
:10115000CBE738BDEC01002070B50F4E0C4631686E
:10116000054611B900F0B4FC30602146284600F075
:10117000AFFC431C03D14FF0FF34204670BDC41CAC
:1011800024F00304A042F8D0211A284600F0A0FC65
:101190000130F2D1EFE700BFE80100202DE9F8436C
:1011A000CD1C25F0030508350C2D38BF0C25002D6E
:1011B000064601DBA94204D90C2333600020BDE8B8
:1011C000F883DFF8D48000F069F8D8F800301C46C6
:1011D00044BB29463046FFF7BFFF431C044658D1A5
:1011E000D8F800402746002F43D1002C4BD023686D
:1011F0003946304604EB030900F06AFC814542D1D0
:10120000216830466D1A2946FFF7A6FF01303AD013
:1012100023682B442360D8F800305A6862BBC8F8B2
:1012200000700FE02268521B20D40B2A17D96119D5
:10123000A342256018BF5960636808BFC8F8001052
:1012400062514B60304600F02FF804F10B00231D73
:1012500020F00700C21A1CBF1B1AA350AFE7626838
:10126000A3420CBFC8F800205A60EBE7234664682D
:10127000AEE73C467F68B6E71A465B68A342FBD1FF
:1012800000235360DEE70C233046336000F00CF897
:1012900094E70560D6E700BFEC0100200148FFF7A6
:1012A00010BF00BFE40100200148FFF70BBF00BFE3
:1012B000E4010020936810B4013B002B936007DA2F
:1012C0009469A34201DB0A2902D110BC00F06CBB77
:1012D0001368581C10601970084610BC7047F8B5A8
:1012E00006460F461446D518AC4201D1002007E04F
:1012F0003A46304614F8011BFFF7DCFF431CF3D1DC
:10130000F8BD00002DE9F04F0D46144698460646FC
:101310009DB018B1036A0BB9FFF7CEFD6B6ED9070C
:1013200005D4AB899A0502D4A86DFFF7CAFEAB8934
:101330001B0701D52B699BB92946304600F072FB8B
:1013400070B16B6EDC0704D54FF0FF301DB0BDE807
:10135000F08FAB899805F7D4A86DFFF7B3FEF3E7DC
:101360000023099320238DF8293030234FF0010901
:10137000CDF80C80DFF8A8818DF82A3023469A46F4
:1013800013F8012B0AB1252AF9D1BAEB040B0BD0C3
:101390005B46224629463046FFF7A1FF013000F0A8
:1013A000A780099A5A4409929AF80030002B00F05D
:1013B0009F8000234FF0FF32CDE905230AF1010A97
:1013C000049307938DF853301A935446052214F86A
:1013D000011B534800F08CFB049AD8B9D10644BFD6
:1013E00020238DF85330130744BF2B238DF853303F
:1013F0009AF800302A2B15D0544600204FF00A0CE2
:10140000079A214611F8013B303B092B4BD9B0B16B
:10141000079214E0A0EB080309FA03F31343A24672
:101420000493D2E7039B191D1B680391002BBBBFDC
:101430005B4242F0020207930793B8BF04922378FD
:101440002E2B0AD163782A2B32D1039B02341A1D2A
:101450001B68039243EAE3730593DFF8C8A00322F5
:101460005046217800F044FB38B14022049BA0EBA9
:101470000A00824013430134049314F8011B06222E
:1014800029488DF8281000F033FB00283FD0274B67
:101490001BBB039B073323F0070308330393099B0C
:1014A0003B4409936AE70C4601200CFB0232A8E793
:1014B00000234FF00A0C194601340593204610F81A
:1014C000012B303A092A03D9002BC6D00591C4E775
:1014D000044601230CFB0121F0E703AB00932A46ED
:1014E0003046134B04A9AFF300800746781CD6D1D1
:1014F0006B6ED90705D4AB899A0502D4A86DFFF7A6
:10150000E1FDAB895B063FF51FAF09981EE703AB12
:1015100000932A463046064B04A900F07DF8E4E724
:101520003A1C0008401C0008441C00080000000091
:10153000DF1200082DE9F047164698468A680B69C5
:1015400007469342B8BF1346336091F843200C46D8
:10155000DDF820900AB1013333602368990642BF59
:10156000336802333360256815F0060506D104F1AF
:10157000190AE36832689B1AAB422BDC94F84330BB
:101580002268003B18BF0123920630D441463846FA
:1015900004F14302C847013023D02368226903F0D5
:1015A0000603042B14BF002533684FF0000608BF64
:1015B000E56804F11A0408BFED1A54F8123C08BF9C
:1015C00025EAE5759342C4BF9B1AED18B5421AD1BE
:1015D000002008E00123524641463846C847013002
:1015E00003D14FF0FF30BDE8F0870135C1E730206F
:1015F000E11881F843005A1C94F845102244023344
:1016000082F84310C2E70123224641463846C847C4
:101610000130E6D00136D9E72DE9FF470F7E91462C
:10162000782F80460C469A460C9E01F1430207D85B
:10163000622F0AD8002F00F0D380582F00F0BA8014
:1016400004F1420684F842703AE0A7F16303152BD7
:10165000F6D801A151F823F0B1160008C51600080C
:1016600041160008411600084116000841160008FE
:10167000C51600084116000841160008411600086A
:1016800041160008C7170008EF1600088117000868
:101690004116000841160008E91700084116000825
:1016A000EF160008411600084116000889170008C7
:1016B00033681A1D1B68326004F1420684F8423018
:1016C00001239EE033682068191D3160060601D5AC
:1016D0001D6803E04506FBD5B3F90050002D03DA81
:1016E0002D236D4284F843300A23594811E02168C4
:1016F0003368080653F8045B02D4490648BFADB20C
:101700006F2F336014BF0A2308235148002184F847
:1017100043106668002EA8BF2168A660A4BF21F010
:10172000040121600DB9002E4BD01646B5FBF3F134
:1017300003FB1157C75D06F8017D2F46BB420D46DE
:10174000F4D9082B0BD12368DF0708D5236961681A
:101750009942DEBF302306F8013C06F1FF36921BAA
:1017600022614B4621464046CDF800A003AAFFF770
:10177000E1FE01304AD14FF0FF3004B0BDE8F08700
:10178000236843F0200323607827324884F84570AB
:10179000236831681F0651F8045B02D45F0648BF16
:1017A000ADB23160D90744BF43F0200323601DB1BF
:1017B0001023ABE72648E9E7236823F020032360E2
:1017C000F6E71646BDE733682568181D6169306085
:1017D0002E061B6801D5196002E06806FBD519804A
:1017E000002316462361BCE7336800211A1D3260CE
:1017F0001E686268304600F07BF908B1801B6060AB
:1018000063682361002384F84330AAE732464946DF
:1018100040462369D0470130ADD023689B0713D4DD
:10182000E068039B9842B8BF1846A6E701233246FA
:1018300049464046D04701309DD00135E3680399C1
:101840005B1AAB42F2DCEBE7002504F11906F5E781
:101850004B1C00085C1C0008B1F90C20F8B51607F9
:1018600005460C4654D44B68002B02DC0B6C002B55
:1018700048DDE66A002E45D0002312F480522F681E
:10188000216A2B6030D0626DA389590705D5636842
:10189000D21A636B0BB1236CD21A00232846E66A76
:1018A000216AB047431CA38906D129681D292BD87A
:1018B000284A0A41D60727D4002262602269D90447
:1018C000226004D5421C01D12B6803B96065616BAD
:1018D0002F60B9B104F14403994202D02846FFF7C2
:1018E000F3FB002363630DE001232846B047024663
:1018F000501CC9D12B68002BC6D01D2B01D0162B34
:101900001DD12F60002021E043F040031BB21AE0FC
:101910000F69002FF6D0930718BF00230E6808BF89
:101920004B69F61B0F608B60002EEBDD33463A46A9
:101930002846216AD4F828C0E047002807DCB4F91B
:101940000C3043F040034FF0FF30A381F8BD074453
:10195000361AE9E7FEFFBFDF38B50B6905460C46CE
:1019600013B90025284638BD18B1036A0BB9FFF733
:10197000A3FAB4F90C30002BF3D0626ED00704D474
:10198000990502D4A06DFFF79CFB28462146FFF77E
:1019900063FF636E0546DA07E4D4A3899B05E1D4AF
:1019A000A06DFFF78FFBDDE7F8B50E461446054640
:1019B00018B1036A0BB9FFF77FFAA369A360A38983
:1019C0001A0701D5236943B92146284600F02AF8B1
:1019D00018B14FF0FF373846F8BD23682269F6B2D8
:1019E000981A63693746834205DC21462846FFF78B
:1019F000B3FF0028EDD1A368013BA36023685A1C04
:101A000022601E706269431C9A4204D0A389DB07DE
:101A1000E1D50A2EDFD121462846FFF79DFF002899
:101A2000D9D0D6E738B5294B054618680C4618B109
:101A3000036A0BB9FFF740FAB4F90C30190722D446
:101A4000DA0607D409222A6043F040034FF0FF3042
:101A5000A38133E0580712D5616B41B104F144030F
:101A6000994202D02846FFF72FFB00236363A38926
:101A700023F02403A3810023636023692360A389E7
:101A800043F00803A38123694BB9A38903F42073AE
:101A9000B3F5007F03D02146284600F05CF8B4F986
:101AA0000C3013F001020AD00022A2606269524297
:101AB000A261226942B913F08000C5D138BD9907EF
:101AC00058BF6269A260F4E70020F7E71C0000201D
:101AD00038B50023054D044608462B60FFF700F992
:101AE000431C02D12B6803B1236038BDE001002004
:101AF000034610B5C9B202449342184601D10020F2
:101B000003E0047801338C42F6D110BD70B50C4669
:101B1000B1F90E10154600291E4696B00CDAA389BD
:101B2000002113F0800F14BF40234FF48063002086
:101B300031602B6016B070BD6A4600F049F800288D
:101B4000EDDB019901F47041A1F50053594259416F
:101B50004FF48063EBE78B89F7B59D0706460C468B
:101B600007D504F14703236023610123636103B0B8
:101B7000F0BD6A4601ABFFF7C9FF009F0546394635
:101B80003046FFF70BFB48B9B4F90C309A05EED498
:101B900023F0030343F00203A381E2E7A389C4E92E
:101BA000040743F08003A381019B20605BB13046B2
:101BB000B4F90E1000F01EF828B1A38923F0030336
:101BC00043F00103A381A3891D43A581CFE7000052
:101BD00038B50023064D0446084611462B60FFF732
:101BE00059F8431C02D12B6803B1236038BD00BFF4
:101BF000E001002038B50023054D044608462B605F
:101C0000FFF757F8431C02D12B6803B1236038BD9E
:101C1000E0010020F8B500BFF8BC08BC9E46704744
:0C1C2000F8B500BFF8BC08BC9E46704739
:101C2C002074656D703A20256420430D0A00232D25
:101C3C00302B2000686C4C006566674546470030C9
:101C4C003132333435363738394142434445460016
:101C5C003031323334353637383961626364656616
:041C6C000000000074
:041C70005501000812
:041C74003101000832
:101C780000127A00436F6D697461730D0A000000E9
:101C88000000000003000000A40000202000002045
:101C980000000000A40000200C01002074010020B6
:101CA800000000000000000000000000000000002C
:101CB800000000000000000000000000000000001C
:101CC800000000000000000000000000000000000C
:0C1CD80000000000000000000000000000
:0400000508000D4D95
:00000001FF
